{
	"index_insurance.sol": {
		"DroughtInsurance": {
			"abi": [
				{
					"inputs": [
						{
							"internalType": "uint256",
							"name": "_premium",
							"type": "uint256"
						},
						{
							"internalType": "uint256",
							"name": "_payout",
							"type": "uint256"
						},
						{
							"internalType": "int256",
							"name": "_indexThreshold",
							"type": "int256"
						},
						{
							"internalType": "address",
							"name": "_oracleAddress",
							"type": "address"
						}
					],
					"stateMutability": "nonpayable",
					"type": "constructor"
				},
				{
					"inputs": [],
					"name": "buyInsurance",
					"outputs": [],
					"stateMutability": "payable",
					"type": "function"
				},
				{
					"inputs": [
						{
							"internalType": "uint256",
							"name": "region",
							"type": "uint256"
						}
					],
					"name": "checkDrought",
					"outputs": [
						{
							"internalType": "bool",
							"name": "",
							"type": "bool"
						}
					],
					"stateMutability": "nonpayable",
					"type": "function"
				},
				{
					"inputs": [
						{
							"internalType": "uint256",
							"name": "amount",
							"type": "uint256"
						},
						{
							"internalType": "uint256",
							"name": "region",
							"type": "uint256"
						}
					],
					"name": "claim",
					"outputs": [],
					"stateMutability": "nonpayable",
					"type": "function"
				},
				{
					"inputs": [],
					"name": "creator",
					"outputs": [
						{
							"internalType": "address",
							"name": "",
							"type": "address"
						}
					],
					"stateMutability": "view",
					"type": "function"
				},
				{
					"inputs": [
						{
							"internalType": "address",
							"name": "",
							"type": "address"
						}
					],
					"name": "farmerToFutureObligation",
					"outputs": [
						{
							"internalType": "uint256",
							"name": "",
							"type": "uint256"
						}
					],
					"stateMutability": "view",
					"type": "function"
				},
				{
					"inputs": [
						{
							"internalType": "address",
							"name": "",
							"type": "address"
						}
					],
					"name": "farmerToObligation",
					"outputs": [
						{
							"internalType": "uint256",
							"name": "",
							"type": "uint256"
						}
					],
					"stateMutability": "view",
					"type": "function"
				},
				{
					"inputs": [],
					"name": "index",
					"outputs": [
						{
							"internalType": "int256",
							"name": "",
							"type": "int256"
						}
					],
					"stateMutability": "view",
					"type": "function"
				},
				{
					"inputs": [],
					"name": "indexThreshold",
					"outputs": [
						{
							"internalType": "int256",
							"name": "",
							"type": "int256"
						}
					],
					"stateMutability": "view",
					"type": "function"
				},
				{
					"inputs": [],
					"name": "newFarmer",
					"outputs": [
						{
							"internalType": "string",
							"name": "firstName",
							"type": "string"
						},
						{
							"internalType": "string",
							"name": "lastName",
							"type": "string"
						},
						{
							"internalType": "uint256",
							"name": "region",
							"type": "uint256"
						},
						{
							"internalType": "address",
							"name": "farmerAccount",
							"type": "address"
						}
					],
					"stateMutability": "view",
					"type": "function"
				},
				{
					"inputs": [],
					"name": "oracle",
					"outputs": [
						{
							"internalType": "address",
							"name": "",
							"type": "address"
						}
					],
					"stateMutability": "view",
					"type": "function"
				},
				{
					"inputs": [],
					"name": "payout",
					"outputs": [
						{
							"internalType": "uint256",
							"name": "",
							"type": "uint256"
						}
					],
					"stateMutability": "view",
					"type": "function"
				},
				{
					"inputs": [],
					"name": "premium",
					"outputs": [
						{
							"internalType": "uint256",
							"name": "",
							"type": "uint256"
						}
					],
					"stateMutability": "view",
					"type": "function"
				},
				{
					"inputs": [
						{
							"internalType": "string",
							"name": "_firstName",
							"type": "string"
						},
						{
							"internalType": "string",
							"name": "_lastName",
							"type": "string"
						},
						{
							"internalType": "uint256",
							"name": "_region",
							"type": "uint256"
						}
					],
					"name": "register",
					"outputs": [],
					"stateMutability": "nonpayable",
					"type": "function"
				},
				{
					"inputs": [
						{
							"internalType": "uint256",
							"name": "newPayout",
							"type": "uint256"
						}
					],
					"name": "setPayout",
					"outputs": [],
					"stateMutability": "nonpayable",
					"type": "function"
				},
				{
					"inputs": [
						{
							"internalType": "uint256",
							"name": "newPremium",
							"type": "uint256"
						}
					],
					"name": "setPremium",
					"outputs": [],
					"stateMutability": "nonpayable",
					"type": "function"
				}
			],
			"devdoc": {
				"kind": "dev",
				"methods": {},
				"version": 1
			},
			"evm": {
				"assembly": "    /* \"index_insurance.sol\":228:3595  contract DroughtInsurance {... */\n  mstore(0x40, 0x80)\n    /* \"index_insurance.sol\":1216:1452  constructor(uint _premium, uint _payout, int _indexThreshold, address _oracleAddress) {... */\n  callvalue\n  dup1\n  iszero\n  tag_1\n  jumpi\n  0x00\n  dup1\n  revert\ntag_1:\n  pop\n  mload(0x40)\n  sub(codesize, bytecodeSize)\n  dup1\n  bytecodeSize\n  dup4\n  codecopy\n  dup2\n  dup2\n  add\n  0x40\n  mstore\n  dup2\n  add\n  swap1\n  tag_2\n  swap2\n  swap1\n  tag_3\n  jump\t// in\ntag_2:\n    /* \"index_insurance.sol\":1319:1327  _premium */\n  dup4\n    /* \"index_insurance.sol\":1309:1316  premium */\n  0x00\n    /* \"index_insurance.sol\":1309:1327  premium = _premium */\n  dup2\n  swap1\n  sstore\n  pop\n    /* \"index_insurance.sol\":1343:1350  _payout */\n  dup3\n    /* \"index_insurance.sol\":1334:1340  payout */\n  0x01\n    /* \"index_insurance.sol\":1334:1350  payout = _payout */\n  dup2\n  swap1\n  sstore\n  pop\n    /* \"index_insurance.sol\":1374:1389  _indexThreshold */\n  dup2\n    /* \"index_insurance.sol\":1357:1371  indexThreshold */\n  0x02\n    /* \"index_insurance.sol\":1357:1389  indexThreshold = _indexThreshold */\n  dup2\n  swap1\n  sstore\n  pop\n    /* \"index_insurance.sol\":1405:1419  _oracleAddress */\n  dup1\n    /* \"index_insurance.sol\":1396:1402  oracle */\n  0x04\n  0x00\n    /* \"index_insurance.sol\":1396:1419  oracle = _oracleAddress */\n  0x0100\n  exp\n  dup2\n  sload\n  dup2\n  0xffffffffffffffffffffffffffffffffffffffff\n  mul\n  not\n  and\n  swap1\n  dup4\n  0xffffffffffffffffffffffffffffffffffffffff\n  and\n  mul\n  or\n  swap1\n  sstore\n  pop\n    /* \"index_insurance.sol\":1436:1446  msg.sender */\n  caller\n    /* \"index_insurance.sol\":1426:1433  creator */\n  0x05\n  0x00\n    /* \"index_insurance.sol\":1426:1446  creator = msg.sender */\n  0x0100\n  exp\n  dup2\n  sload\n  dup2\n  0xffffffffffffffffffffffffffffffffffffffff\n  mul\n  not\n  and\n  swap1\n  dup4\n  0xffffffffffffffffffffffffffffffffffffffff\n  and\n  mul\n  or\n  swap1\n  sstore\n  pop\n    /* \"index_insurance.sol\":1216:1452  constructor(uint _premium, uint _payout, int _indexThreshold, address _oracleAddress) {... */\n  pop\n  pop\n  pop\n  pop\n    /* \"index_insurance.sol\":228:3595  contract DroughtInsurance {... */\n  jump(tag_6)\n    /* \"#utility.yul\":88:205   */\ntag_8:\n    /* \"#utility.yul\":197:198   */\n  0x00\n    /* \"#utility.yul\":194:195   */\n  dup1\n    /* \"#utility.yul\":187:199   */\n  revert\n    /* \"#utility.yul\":334:411   */\ntag_10:\n    /* \"#utility.yul\":371:378   */\n  0x00\n    /* \"#utility.yul\":400:405   */\n  dup2\n    /* \"#utility.yul\":389:405   */\n  swap1\n  pop\n    /* \"#utility.yul\":334:411   */\n  swap2\n  swap1\n  pop\n  jump\t// out\n    /* \"#utility.yul\":417:539   */\ntag_11:\n    /* \"#utility.yul\":490:514   */\n  tag_26\n    /* \"#utility.yul\":508:513   */\n  dup2\n    /* \"#utility.yul\":490:514   */\n  tag_10\n  jump\t// in\ntag_26:\n    /* \"#utility.yul\":483:488   */\n  dup2\n    /* \"#utility.yul\":480:515   */\n  eq\n    /* \"#utility.yul\":470:533   */\n  tag_27\n  jumpi\n    /* \"#utility.yul\":529:530   */\n  0x00\n    /* \"#utility.yul\":526:527   */\n  dup1\n    /* \"#utility.yul\":519:531   */\n  revert\n    /* \"#utility.yul\":470:533   */\ntag_27:\n    /* \"#utility.yul\":417:539   */\n  pop\n  jump\t// out\n    /* \"#utility.yul\":545:688   */\ntag_12:\n    /* \"#utility.yul\":602:607   */\n  0x00\n    /* \"#utility.yul\":633:639   */\n  dup2\n    /* \"#utility.yul\":627:640   */\n  mload\n    /* \"#utility.yul\":618:640   */\n  swap1\n  pop\n    /* \"#utility.yul\":649:682   */\n  tag_29\n    /* \"#utility.yul\":676:681   */\n  dup2\n    /* \"#utility.yul\":649:682   */\n  tag_11\n  jump\t// in\ntag_29:\n    /* \"#utility.yul\":545:688   */\n  swap3\n  swap2\n  pop\n  pop\n  jump\t// out\n    /* \"#utility.yul\":694:770   */\ntag_13:\n    /* \"#utility.yul\":730:737   */\n  0x00\n    /* \"#utility.yul\":759:764   */\n  dup2\n    /* \"#utility.yul\":748:764   */\n  swap1\n  pop\n    /* \"#utility.yul\":694:770   */\n  swap2\n  swap1\n  pop\n  jump\t// out\n    /* \"#utility.yul\":776:896   */\ntag_14:\n    /* \"#utility.yul\":848:871   */\n  tag_32\n    /* \"#utility.yul\":865:870   */\n  dup2\n    /* \"#utility.yul\":848:871   */\n  tag_13\n  jump\t// in\ntag_32:\n    /* \"#utility.yul\":841:846   */\n  dup2\n    /* \"#utility.yul\":838:872   */\n  eq\n    /* \"#utility.yul\":828:890   */\n  tag_33\n  jumpi\n    /* \"#utility.yul\":886:887   */\n  0x00\n    /* \"#utility.yul\":883:884   */\n  dup1\n    /* \"#utility.yul\":876:888   */\n  revert\n    /* \"#utility.yul\":828:890   */\ntag_33:\n    /* \"#utility.yul\":776:896   */\n  pop\n  jump\t// out\n    /* \"#utility.yul\":902:1043   */\ntag_15:\n    /* \"#utility.yul\":958:963   */\n  0x00\n    /* \"#utility.yul\":989:995   */\n  dup2\n    /* \"#utility.yul\":983:996   */\n  mload\n    /* \"#utility.yul\":974:996   */\n  swap1\n  pop\n    /* \"#utility.yul\":1005:1037   */\n  tag_35\n    /* \"#utility.yul\":1031:1036   */\n  dup2\n    /* \"#utility.yul\":1005:1037   */\n  tag_14\n  jump\t// in\ntag_35:\n    /* \"#utility.yul\":902:1043   */\n  swap3\n  swap2\n  pop\n  pop\n  jump\t// out\n    /* \"#utility.yul\":1049:1175   */\ntag_16:\n    /* \"#utility.yul\":1086:1093   */\n  0x00\n    /* \"#utility.yul\":1126:1168   */\n  0xffffffffffffffffffffffffffffffffffffffff\n    /* \"#utility.yul\":1119:1124   */\n  dup3\n    /* \"#utility.yul\":1115:1169   */\n  and\n    /* \"#utility.yul\":1104:1169   */\n  swap1\n  pop\n    /* \"#utility.yul\":1049:1175   */\n  swap2\n  swap1\n  pop\n  jump\t// out\n    /* \"#utility.yul\":1181:1277   */\ntag_17:\n    /* \"#utility.yul\":1218:1225   */\n  0x00\n    /* \"#utility.yul\":1247:1271   */\n  tag_38\n    /* \"#utility.yul\":1265:1270   */\n  dup3\n    /* \"#utility.yul\":1247:1271   */\n  tag_16\n  jump\t// in\ntag_38:\n    /* \"#utility.yul\":1236:1271   */\n  swap1\n  pop\n    /* \"#utility.yul\":1181:1277   */\n  swap2\n  swap1\n  pop\n  jump\t// out\n    /* \"#utility.yul\":1283:1405   */\ntag_18:\n    /* \"#utility.yul\":1356:1380   */\n  tag_40\n    /* \"#utility.yul\":1374:1379   */\n  dup2\n    /* \"#utility.yul\":1356:1380   */\n  tag_17\n  jump\t// in\ntag_40:\n    /* \"#utility.yul\":1349:1354   */\n  dup2\n    /* \"#utility.yul\":1346:1381   */\n  eq\n    /* \"#utility.yul\":1336:1399   */\n  tag_41\n  jumpi\n    /* \"#utility.yul\":1395:1396   */\n  0x00\n    /* \"#utility.yul\":1392:1393   */\n  dup1\n    /* \"#utility.yul\":1385:1397   */\n  revert\n    /* \"#utility.yul\":1336:1399   */\ntag_41:\n    /* \"#utility.yul\":1283:1405   */\n  pop\n  jump\t// out\n    /* \"#utility.yul\":1411:1554   */\ntag_19:\n    /* \"#utility.yul\":1468:1473   */\n  0x00\n    /* \"#utility.yul\":1499:1505   */\n  dup2\n    /* \"#utility.yul\":1493:1506   */\n  mload\n    /* \"#utility.yul\":1484:1506   */\n  swap1\n  pop\n    /* \"#utility.yul\":1515:1548   */\n  tag_43\n    /* \"#utility.yul\":1542:1547   */\n  dup2\n    /* \"#utility.yul\":1515:1548   */\n  tag_18\n  jump\t// in\ntag_43:\n    /* \"#utility.yul\":1411:1554   */\n  swap3\n  swap2\n  pop\n  pop\n  jump\t// out\n    /* \"#utility.yul\":1560:2378   */\ntag_3:\n    /* \"#utility.yul\":1656:1662   */\n  0x00\n    /* \"#utility.yul\":1664:1670   */\n  dup1\n    /* \"#utility.yul\":1672:1678   */\n  0x00\n    /* \"#utility.yul\":1680:1686   */\n  dup1\n    /* \"#utility.yul\":1729:1732   */\n  0x80\n    /* \"#utility.yul\":1717:1726   */\n  dup6\n    /* \"#utility.yul\":1708:1715   */\n  dup8\n    /* \"#utility.yul\":1704:1727   */\n  sub\n    /* \"#utility.yul\":1700:1733   */\n  slt\n    /* \"#utility.yul\":1697:1817   */\n  iszero\n  tag_45\n  jumpi\n    /* \"#utility.yul\":1736:1815   */\n  tag_46\n  tag_8\n  jump\t// in\ntag_46:\n    /* \"#utility.yul\":1697:1817   */\ntag_45:\n    /* \"#utility.yul\":1856:1857   */\n  0x00\n    /* \"#utility.yul\":1881:1945   */\n  tag_47\n    /* \"#utility.yul\":1937:1944   */\n  dup8\n    /* \"#utility.yul\":1928:1934   */\n  dup3\n    /* \"#utility.yul\":1917:1926   */\n  dup9\n    /* \"#utility.yul\":1913:1935   */\n  add\n    /* \"#utility.yul\":1881:1945   */\n  tag_12\n  jump\t// in\ntag_47:\n    /* \"#utility.yul\":1871:1945   */\n  swap5\n  pop\n    /* \"#utility.yul\":1827:1955   */\n  pop\n    /* \"#utility.yul\":1994:1996   */\n  0x20\n    /* \"#utility.yul\":2020:2084   */\n  tag_48\n    /* \"#utility.yul\":2076:2083   */\n  dup8\n    /* \"#utility.yul\":2067:2073   */\n  dup3\n    /* \"#utility.yul\":2056:2065   */\n  dup9\n    /* \"#utility.yul\":2052:2074   */\n  add\n    /* \"#utility.yul\":2020:2084   */\n  tag_12\n  jump\t// in\ntag_48:\n    /* \"#utility.yul\":2010:2084   */\n  swap4\n  pop\n    /* \"#utility.yul\":1965:2094   */\n  pop\n    /* \"#utility.yul\":2133:2135   */\n  0x40\n    /* \"#utility.yul\":2159:2222   */\n  tag_49\n    /* \"#utility.yul\":2214:2221   */\n  dup8\n    /* \"#utility.yul\":2205:2211   */\n  dup3\n    /* \"#utility.yul\":2194:2203   */\n  dup9\n    /* \"#utility.yul\":2190:2212   */\n  add\n    /* \"#utility.yul\":2159:2222   */\n  tag_15\n  jump\t// in\ntag_49:\n    /* \"#utility.yul\":2149:2222   */\n  swap3\n  pop\n    /* \"#utility.yul\":2104:2232   */\n  pop\n    /* \"#utility.yul\":2271:2273   */\n  0x60\n    /* \"#utility.yul\":2297:2361   */\n  tag_50\n    /* \"#utility.yul\":2353:2360   */\n  dup8\n    /* \"#utility.yul\":2344:2350   */\n  dup3\n    /* \"#utility.yul\":2333:2342   */\n  dup9\n    /* \"#utility.yul\":2329:2351   */\n  add\n    /* \"#utility.yul\":2297:2361   */\n  tag_19\n  jump\t// in\ntag_50:\n    /* \"#utility.yul\":2287:2361   */\n  swap2\n  pop\n    /* \"#utility.yul\":2242:2371   */\n  pop\n    /* \"#utility.yul\":1560:2378   */\n  swap3\n  swap6\n  swap2\n  swap5\n  pop\n  swap3\n  pop\n  jump\t// out\n    /* \"index_insurance.sol\":228:3595  contract DroughtInsurance {... */\ntag_6:\n  dataSize(sub_0)\n  dup1\n  dataOffset(sub_0)\n  0x00\n  codecopy\n  0x00\n  return\nstop\n\nsub_0: assembly {\n        /* \"index_insurance.sol\":228:3595  contract DroughtInsurance {... */\n      mstore(0x40, 0x80)\n      jumpi(tag_1, lt(calldatasize, 0x04))\n      shr(0xe0, calldataload(0x00))\n      dup1\n      0x69e52fbb\n      gt\n      tag_17\n      jumpi\n      dup1\n      0xc3490263\n      gt\n      tag_18\n      jumpi\n      dup1\n      0xc3490263\n      eq\n      tag_13\n      jumpi\n      dup1\n      0xe0a73a93\n      eq\n      tag_14\n      jumpi\n      dup1\n      0xe8a60558\n      eq\n      tag_15\n      jumpi\n      dup1\n      0xf96cfb84\n      eq\n      tag_16\n      jumpi\n      jump(tag_1)\n    tag_18:\n      dup1\n      0x69e52fbb\n      eq\n      tag_9\n      jumpi\n      dup1\n      0x71618c79\n      eq\n      tag_10\n      jumpi\n      dup1\n      0x7dc0d1d0\n      eq\n      tag_11\n      jumpi\n      dup1\n      0x88a74cca\n      eq\n      tag_12\n      jumpi\n      jump(tag_1)\n    tag_17:\n      dup1\n      0x21b0c103\n      gt\n      tag_19\n      jumpi\n      dup1\n      0x21b0c103\n      eq\n      tag_5\n      jumpi\n      dup1\n      0x2986c0e5\n      eq\n      tag_6\n      jumpi\n      dup1\n      0x44c18aa7\n      eq\n      tag_7\n      jumpi\n      dup1\n      0x63bd1d4a\n      eq\n      tag_8\n      jumpi\n      jump(tag_1)\n    tag_19:\n      dup1\n      0x02d05d3f\n      eq\n      tag_2\n      jumpi\n      dup1\n      0x10ec214f\n      eq\n      tag_3\n      jumpi\n      dup1\n      0x169b6f09\n      eq\n      tag_4\n      jumpi\n    tag_1:\n      0x00\n      dup1\n      revert\n        /* \"index_insurance.sol\":597:619  address public creator */\n    tag_2:\n      callvalue\n      dup1\n      iszero\n      tag_20\n      jumpi\n      0x00\n      dup1\n      revert\n    tag_20:\n      pop\n      tag_21\n      tag_22\n      jump\t// in\n    tag_21:\n      mload(0x40)\n      tag_23\n      swap2\n      swap1\n      tag_24\n      jump\t// in\n    tag_23:\n      mload(0x40)\n      dup1\n      swap2\n      sub\n      swap1\n      return\n        /* \"index_insurance.sol\":1556:1716  function setPremium(uint newPremium) public {... */\n    tag_3:\n      callvalue\n      dup1\n      iszero\n      tag_25\n      jumpi\n      0x00\n      dup1\n      revert\n    tag_25:\n      pop\n      tag_26\n      0x04\n      dup1\n      calldatasize\n      sub\n      dup2\n      add\n      swap1\n      tag_27\n      swap2\n      swap1\n      tag_28\n      jump\t// in\n    tag_27:\n      tag_29\n      jump\t// in\n    tag_26:\n      stop\n        /* \"index_insurance.sol\":1094:1151  mapping (address => uint) public farmerToFutureObligation */\n    tag_4:\n      callvalue\n      dup1\n      iszero\n      tag_30\n      jumpi\n      0x00\n      dup1\n      revert\n    tag_30:\n      pop\n      tag_31\n      0x04\n      dup1\n      calldatasize\n      sub\n      dup2\n      add\n      swap1\n      tag_32\n      swap2\n      swap1\n      tag_33\n      jump\t// in\n    tag_32:\n      tag_34\n      jump\t// in\n    tag_31:\n      mload(0x40)\n      tag_35\n      swap2\n      swap1\n      tag_36\n      jump\t// in\n    tag_35:\n      mload(0x40)\n      dup1\n      swap2\n      sub\n      swap1\n      return\n        /* \"index_insurance.sol\":663:686  Farmer public newFarmer */\n    tag_5:\n      callvalue\n      dup1\n      iszero\n      tag_37\n      jumpi\n      0x00\n      dup1\n      revert\n    tag_37:\n      pop\n      tag_38\n      tag_39\n      jump\t// in\n    tag_38:\n      mload(0x40)\n      tag_40\n      swap5\n      swap4\n      swap3\n      swap2\n      swap1\n      tag_41\n      jump\t// in\n    tag_40:\n      mload(0x40)\n      dup1\n      swap2\n      sub\n      swap1\n      return\n        /* \"index_insurance.sol\":479:495  int public index */\n    tag_6:\n      callvalue\n      dup1\n      iszero\n      tag_42\n      jumpi\n      0x00\n      dup1\n      revert\n    tag_42:\n      pop\n      tag_43\n      tag_44\n      jump\t// in\n    tag_43:\n      mload(0x40)\n      tag_45\n      swap2\n      swap1\n      tag_46\n      jump\t// in\n    tag_45:\n      mload(0x40)\n      dup1\n      swap2\n      sub\n      swap1\n      return\n        /* \"index_insurance.sol\":1817:1972  function setPayout(uint newPayout) public {... */\n    tag_7:\n      callvalue\n      dup1\n      iszero\n      tag_47\n      jumpi\n      0x00\n      dup1\n      revert\n    tag_47:\n      pop\n      tag_48\n      0x04\n      dup1\n      calldatasize\n      sub\n      dup2\n      add\n      swap1\n      tag_49\n      swap2\n      swap1\n      tag_28\n      jump\t// in\n    tag_49:\n      tag_50\n      jump\t// in\n    tag_48:\n      stop\n        /* \"index_insurance.sol\":361:379  uint public payout */\n    tag_8:\n      callvalue\n      dup1\n      iszero\n      tag_51\n      jumpi\n      0x00\n      dup1\n      revert\n    tag_51:\n      pop\n      tag_52\n      tag_53\n      jump\t// in\n    tag_52:\n      mload(0x40)\n      tag_54\n      swap2\n      swap1\n      tag_36\n      jump\t// in\n    tag_54:\n      mload(0x40)\n      dup1\n      swap2\n      sub\n      swap1\n      return\n        /* \"index_insurance.sol\":2741:2986  function checkDrought(uint region) public returns(bool) {... */\n    tag_9:\n      callvalue\n      dup1\n      iszero\n      tag_55\n      jumpi\n      0x00\n      dup1\n      revert\n    tag_55:\n      pop\n      tag_56\n      0x04\n      dup1\n      calldatasize\n      sub\n      dup2\n      add\n      swap1\n      tag_57\n      swap2\n      swap1\n      tag_28\n      jump\t// in\n    tag_57:\n      tag_58\n      jump\t// in\n    tag_56:\n      mload(0x40)\n      tag_59\n      swap2\n      swap1\n      tag_60\n      jump\t// in\n    tag_59:\n      mload(0x40)\n      dup1\n      swap2\n      sub\n      swap1\n      return\n        /* \"index_insurance.sol\":2410:2613  function buyInsurance() public payable {... */\n    tag_10:\n      tag_61\n      tag_62\n      jump\t// in\n    tag_61:\n      stop\n        /* \"index_insurance.sol\":500:521  address public oracle */\n    tag_11:\n      callvalue\n      dup1\n      iszero\n      tag_63\n      jumpi\n      0x00\n      dup1\n      revert\n    tag_63:\n      pop\n      tag_64\n      tag_65\n      jump\t// in\n    tag_64:\n      mload(0x40)\n      tag_66\n      swap2\n      swap1\n      tag_24\n      jump\t// in\n    tag_66:\n      mload(0x40)\n      dup1\n      swap2\n      sub\n      swap1\n      return\n        /* \"index_insurance.sol\":1001:1052  mapping (address => uint) public farmerToObligation */\n    tag_12:\n      callvalue\n      dup1\n      iszero\n      tag_67\n      jumpi\n      0x00\n      dup1\n      revert\n    tag_67:\n      pop\n      tag_68\n      0x04\n      dup1\n      calldatasize\n      sub\n      dup2\n      add\n      swap1\n      tag_69\n      swap2\n      swap1\n      tag_33\n      jump\t// in\n    tag_69:\n      tag_70\n      jump\t// in\n    tag_68:\n      mload(0x40)\n      tag_71\n      swap2\n      swap1\n      tag_36\n      jump\t// in\n    tag_71:\n      mload(0x40)\n      dup1\n      swap2\n      sub\n      swap1\n      return\n        /* \"index_insurance.sol\":3112:3592  function claim(uint amount, uint region) public {... */\n    tag_13:\n      callvalue\n      dup1\n      iszero\n      tag_72\n      jumpi\n      0x00\n      dup1\n      revert\n    tag_72:\n      pop\n      tag_73\n      0x04\n      dup1\n      calldatasize\n      sub\n      dup2\n      add\n      swap1\n      tag_74\n      swap2\n      swap1\n      tag_75\n      jump\t// in\n    tag_74:\n      tag_76\n      jump\t// in\n    tag_73:\n      stop\n        /* \"index_insurance.sol\":290:309  uint public premium */\n    tag_14:\n      callvalue\n      dup1\n      iszero\n      tag_77\n      jumpi\n      0x00\n      dup1\n      revert\n    tag_77:\n      pop\n      tag_78\n      tag_79\n      jump\t// in\n    tag_78:\n      mload(0x40)\n      tag_80\n      swap2\n      swap1\n      tag_36\n      jump\t// in\n    tag_80:\n      mload(0x40)\n      dup1\n      swap2\n      sub\n      swap1\n      return\n        /* \"index_insurance.sol\":2075:2281  function register(string memory _firstName, string memory _lastName, uint _region) public {... */\n    tag_15:\n      callvalue\n      dup1\n      iszero\n      tag_81\n      jumpi\n      0x00\n      dup1\n      revert\n    tag_81:\n      pop\n      tag_82\n      0x04\n      dup1\n      calldatasize\n      sub\n      dup2\n      add\n      swap1\n      tag_83\n      swap2\n      swap1\n      tag_84\n      jump\t// in\n    tag_83:\n      tag_85\n      jump\t// in\n    tag_82:\n      stop\n        /* \"index_insurance.sol\":408:433  int public indexThreshold */\n    tag_16:\n      callvalue\n      dup1\n      iszero\n      tag_86\n      jumpi\n      0x00\n      dup1\n      revert\n    tag_86:\n      pop\n      tag_87\n      tag_88\n      jump\t// in\n    tag_87:\n      mload(0x40)\n      tag_89\n      swap2\n      swap1\n      tag_46\n      jump\t// in\n    tag_89:\n      mload(0x40)\n      dup1\n      swap2\n      sub\n      swap1\n      return\n        /* \"index_insurance.sol\":597:619  address public creator */\n    tag_22:\n      0x05\n      0x00\n      swap1\n      sload\n      swap1\n      0x0100\n      exp\n      swap1\n      div\n      0xffffffffffffffffffffffffffffffffffffffff\n      and\n      dup2\n      jump\t// out\n        /* \"index_insurance.sol\":1556:1716  function setPremium(uint newPremium) public {... */\n    tag_29:\n        /* \"index_insurance.sol\":1629:1636  creator */\n      0x05\n      0x00\n      swap1\n      sload\n      swap1\n      0x0100\n      exp\n      swap1\n      div\n      0xffffffffffffffffffffffffffffffffffffffff\n      and\n        /* \"index_insurance.sol\":1615:1636  msg.sender == creator */\n      0xffffffffffffffffffffffffffffffffffffffff\n      and\n        /* \"index_insurance.sol\":1615:1625  msg.sender */\n      caller\n        /* \"index_insurance.sol\":1615:1636  msg.sender == creator */\n      0xffffffffffffffffffffffffffffffffffffffff\n      and\n      eq\n        /* \"index_insurance.sol\":1607:1683  require(msg.sender == creator, \"Only smart contract owner can set premium.\") */\n      tag_91\n      jumpi\n      mload(0x40)\n      0x08c379a000000000000000000000000000000000000000000000000000000000\n      dup2\n      mstore\n      0x04\n      add\n      tag_92\n      swap1\n      tag_93\n      jump\t// in\n    tag_92:\n      mload(0x40)\n      dup1\n      swap2\n      sub\n      swap1\n      revert\n    tag_91:\n        /* \"index_insurance.sol\":1700:1710  newPremium */\n      dup1\n        /* \"index_insurance.sol\":1690:1697  premium */\n      0x00\n        /* \"index_insurance.sol\":1690:1710  premium = newPremium */\n      dup2\n      swap1\n      sstore\n      pop\n        /* \"index_insurance.sol\":1556:1716  function setPremium(uint newPremium) public {... */\n      pop\n      jump\t// out\n        /* \"index_insurance.sol\":1094:1151  mapping (address => uint) public farmerToFutureObligation */\n    tag_34:\n      mstore(0x20, 0x0b)\n      dup1\n      0x00\n      mstore\n      keccak256(0x00, 0x40)\n      0x00\n      swap2\n      pop\n      swap1\n      pop\n      sload\n      dup2\n      jump\t// out\n        /* \"index_insurance.sol\":663:686  Farmer public newFarmer */\n    tag_39:\n      0x06\n      dup1\n      0x00\n      add\n      dup1\n      sload\n      tag_94\n      swap1\n      tag_95\n      jump\t// in\n    tag_94:\n      dup1\n      0x1f\n      add\n      0x20\n      dup1\n      swap2\n      div\n      mul\n      0x20\n      add\n      mload(0x40)\n      swap1\n      dup2\n      add\n      0x40\n      mstore\n      dup1\n      swap3\n      swap2\n      swap1\n      dup2\n      dup2\n      mstore\n      0x20\n      add\n      dup3\n      dup1\n      sload\n      tag_96\n      swap1\n      tag_95\n      jump\t// in\n    tag_96:\n      dup1\n      iszero\n      tag_97\n      jumpi\n      dup1\n      0x1f\n      lt\n      tag_98\n      jumpi\n      0x0100\n      dup1\n      dup4\n      sload\n      div\n      mul\n      dup4\n      mstore\n      swap2\n      0x20\n      add\n      swap2\n      jump(tag_97)\n    tag_98:\n      dup3\n      add\n      swap2\n      swap1\n      0x00\n      mstore\n      keccak256(0x00, 0x20)\n      swap1\n    tag_99:\n      dup2\n      sload\n      dup2\n      mstore\n      swap1\n      0x01\n      add\n      swap1\n      0x20\n      add\n      dup1\n      dup4\n      gt\n      tag_99\n      jumpi\n      dup3\n      swap1\n      sub\n      0x1f\n      and\n      dup3\n      add\n      swap2\n    tag_97:\n      pop\n      pop\n      pop\n      pop\n      pop\n      swap1\n      dup1\n      0x01\n      add\n      dup1\n      sload\n      tag_100\n      swap1\n      tag_95\n      jump\t// in\n    tag_100:\n      dup1\n      0x1f\n      add\n      0x20\n      dup1\n      swap2\n      div\n      mul\n      0x20\n      add\n      mload(0x40)\n      swap1\n      dup2\n      add\n      0x40\n      mstore\n      dup1\n      swap3\n      swap2\n      swap1\n      dup2\n      dup2\n      mstore\n      0x20\n      add\n      dup3\n      dup1\n      sload\n      tag_101\n      swap1\n      tag_95\n      jump\t// in\n    tag_101:\n      dup1\n      iszero\n      tag_102\n      jumpi\n      dup1\n      0x1f\n      lt\n      tag_103\n      jumpi\n      0x0100\n      dup1\n      dup4\n      sload\n      div\n      mul\n      dup4\n      mstore\n      swap2\n      0x20\n      add\n      swap2\n      jump(tag_102)\n    tag_103:\n      dup3\n      add\n      swap2\n      swap1\n      0x00\n      mstore\n      keccak256(0x00, 0x20)\n      swap1\n    tag_104:\n      dup2\n      sload\n      dup2\n      mstore\n      swap1\n      0x01\n      add\n      swap1\n      0x20\n      add\n      dup1\n      dup4\n      gt\n      tag_104\n      jumpi\n      dup3\n      swap1\n      sub\n      0x1f\n      and\n      dup3\n      add\n      swap2\n    tag_102:\n      pop\n      pop\n      pop\n      pop\n      pop\n      swap1\n      dup1\n      0x02\n      add\n      sload\n      swap1\n      dup1\n      0x03\n      add\n      0x00\n      swap1\n      sload\n      swap1\n      0x0100\n      exp\n      swap1\n      div\n      0xffffffffffffffffffffffffffffffffffffffff\n      and\n      swap1\n      pop\n      dup5\n      jump\t// out\n        /* \"index_insurance.sol\":479:495  int public index */\n    tag_44:\n      sload(0x03)\n      dup2\n      jump\t// out\n        /* \"index_insurance.sol\":1817:1972  function setPayout(uint newPayout) public {... */\n    tag_50:\n        /* \"index_insurance.sol\":1888:1895  creator */\n      0x05\n      0x00\n      swap1\n      sload\n      swap1\n      0x0100\n      exp\n      swap1\n      div\n      0xffffffffffffffffffffffffffffffffffffffff\n      and\n        /* \"index_insurance.sol\":1874:1895  msg.sender == creator */\n      0xffffffffffffffffffffffffffffffffffffffff\n      and\n        /* \"index_insurance.sol\":1874:1884  msg.sender */\n      caller\n        /* \"index_insurance.sol\":1874:1895  msg.sender == creator */\n      0xffffffffffffffffffffffffffffffffffffffff\n      and\n      eq\n        /* \"index_insurance.sol\":1866:1941  require(msg.sender == creator, \"Only smart contract owner can set payout.\") */\n      tag_106\n      jumpi\n      mload(0x40)\n      0x08c379a000000000000000000000000000000000000000000000000000000000\n      dup2\n      mstore\n      0x04\n      add\n      tag_107\n      swap1\n      tag_108\n      jump\t// in\n    tag_107:\n      mload(0x40)\n      dup1\n      swap2\n      sub\n      swap1\n      revert\n    tag_106:\n        /* \"index_insurance.sol\":1957:1966  newPayout */\n      dup1\n        /* \"index_insurance.sol\":1948:1954  payout */\n      0x01\n        /* \"index_insurance.sol\":1948:1966  payout = newPayout */\n      dup2\n      swap1\n      sstore\n      pop\n        /* \"index_insurance.sol\":1817:1972  function setPayout(uint newPayout) public {... */\n      pop\n      jump\t// out\n        /* \"index_insurance.sol\":361:379  uint public payout */\n    tag_53:\n      sload(0x01)\n      dup2\n      jump\t// out\n        /* \"index_insurance.sol\":2741:2986  function checkDrought(uint region) public returns(bool) {... */\n    tag_58:\n        /* \"index_insurance.sol\":2791:2795  bool */\n      0x00\n        /* \"index_insurance.sol\":2818:2819  1 */\n      0x01\n        /* \"index_insurance.sol\":2808:2814  region */\n      dup3\n        /* \"index_insurance.sol\":2808:2819  region == 1 */\n      sub\n        /* \"index_insurance.sol\":2804:2884  if (region == 1) {... */\n      tag_110\n      jumpi\n        /* \"index_insurance.sol\":2840:2842  -1 */\n      0xffffffffffffffffffffffffffffffffffffffffffffffffffffffffffffffff\n        /* \"index_insurance.sol\":2832:2837  index */\n      0x03\n        /* \"index_insurance.sol\":2832:2842  index = -1 */\n      dup2\n      swap1\n      sstore\n      pop\n        /* \"index_insurance.sol\":2804:2884  if (region == 1) {... */\n      jump(tag_111)\n    tag_110:\n        /* \"index_insurance.sol\":2875:2876  1 */\n      0x01\n        /* \"index_insurance.sol\":2867:2872  index */\n      0x03\n        /* \"index_insurance.sol\":2867:2876  index = 1 */\n      dup2\n      swap1\n      sstore\n      pop\n        /* \"index_insurance.sol\":2804:2884  if (region == 1) {... */\n    tag_111:\n        /* \"index_insurance.sol\":2902:2916  indexThreshold */\n      sload(0x02)\n        /* \"index_insurance.sol\":2894:2899  index */\n      sload(0x03)\n        /* \"index_insurance.sol\":2894:2916  index < indexThreshold */\n      slt\n        /* \"index_insurance.sol\":2890:2981  if (index < indexThreshold) {... */\n      iszero\n      tag_112\n      jumpi\n        /* \"index_insurance.sol\":2934:2938  true */\n      0x01\n        /* \"index_insurance.sol\":2927:2938  return true */\n      swap1\n      pop\n      jump(tag_109)\n        /* \"index_insurance.sol\":2890:2981  if (index < indexThreshold) {... */\n    tag_112:\n        /* \"index_insurance.sol\":2968:2973  false */\n      0x00\n        /* \"index_insurance.sol\":2961:2973  return false */\n      swap1\n      pop\n        /* \"index_insurance.sol\":2741:2986  function checkDrought(uint region) public returns(bool) {... */\n    tag_109:\n      swap2\n      swap1\n      pop\n      jump\t// out\n        /* \"index_insurance.sol\":2410:2613  function buyInsurance() public payable {... */\n    tag_62:\n        /* \"index_insurance.sol\":2477:2484  premium */\n      sload(0x00)\n        /* \"index_insurance.sol\":2464:2473  msg.value */\n      callvalue\n        /* \"index_insurance.sol\":2464:2484  msg.value == premium */\n      eq\n        /* \"index_insurance.sol\":2456:2514  require(msg.value == premium, \"Incorrect premium amount.\") */\n      tag_115\n      jumpi\n      mload(0x40)\n      0x08c379a000000000000000000000000000000000000000000000000000000000\n      dup2\n      mstore\n      0x04\n      add\n      tag_116\n      swap1\n      tag_117\n      jump\t// in\n    tag_116:\n      mload(0x40)\n      dup1\n      swap2\n      sub\n      swap1\n      revert\n    tag_115:\n        /* \"index_insurance.sol\":2554:2560  payout */\n      sload(0x01)\n        /* \"index_insurance.sol\":2521:2539  farmerToObligation */\n      0x0a\n        /* \"index_insurance.sol\":2521:2551  farmerToObligation[msg.sender] */\n      0x00\n        /* \"index_insurance.sol\":2540:2550  msg.sender */\n      caller\n        /* \"index_insurance.sol\":2521:2551  farmerToObligation[msg.sender] */\n      0xffffffffffffffffffffffffffffffffffffffff\n      and\n      0xffffffffffffffffffffffffffffffffffffffff\n      and\n      dup2\n      mstore\n      0x20\n      add\n      swap1\n      dup2\n      mstore\n      0x20\n      add\n      0x00\n      keccak256\n        /* \"index_insurance.sol\":2521:2560  farmerToObligation[msg.sender] = payout */\n      dup2\n      swap1\n      sstore\n      pop\n        /* \"index_insurance.sol\":2410:2613  function buyInsurance() public payable {... */\n      jump\t// out\n        /* \"index_insurance.sol\":500:521  address public oracle */\n    tag_65:\n      0x04\n      0x00\n      swap1\n      sload\n      swap1\n      0x0100\n      exp\n      swap1\n      div\n      0xffffffffffffffffffffffffffffffffffffffff\n      and\n      dup2\n      jump\t// out\n        /* \"index_insurance.sol\":1001:1052  mapping (address => uint) public farmerToObligation */\n    tag_70:\n      mstore(0x20, 0x0a)\n      dup1\n      0x00\n      mstore\n      keccak256(0x00, 0x40)\n      0x00\n      swap2\n      pop\n      swap1\n      pop\n      sload\n      dup2\n      jump\t// out\n        /* \"index_insurance.sol\":3112:3592  function claim(uint amount, uint region) public {... */\n    tag_76:\n        /* \"index_insurance.sol\":3209:3215  amount */\n      dup2\n        /* \"index_insurance.sol\":3175:3193  farmerToObligation */\n      0x0a\n        /* \"index_insurance.sol\":3175:3205  farmerToObligation[msg.sender] */\n      0x00\n        /* \"index_insurance.sol\":3194:3204  msg.sender */\n      caller\n        /* \"index_insurance.sol\":3175:3205  farmerToObligation[msg.sender] */\n      0xffffffffffffffffffffffffffffffffffffffff\n      and\n      0xffffffffffffffffffffffffffffffffffffffff\n      and\n      dup2\n      mstore\n      0x20\n      add\n      swap1\n      dup2\n      mstore\n      0x20\n      add\n      0x00\n      keccak256\n      sload\n        /* \"index_insurance.sol\":3175:3215  farmerToObligation[msg.sender] >= amount */\n      lt\n      iszero\n        /* \"index_insurance.sol\":3167:3253  require(farmerToObligation[msg.sender] >= amount, \"Your claimable amount is too low.\") */\n      tag_119\n      jumpi\n      mload(0x40)\n      0x08c379a000000000000000000000000000000000000000000000000000000000\n      dup2\n      mstore\n      0x04\n      add\n      tag_120\n      swap1\n      tag_121\n      jump\t// in\n    tag_120:\n      mload(0x40)\n      dup1\n      swap2\n      sub\n      swap1\n      revert\n    tag_119:\n        /* \"index_insurance.sol\":3303:3317  bool isDrought */\n      0x00\n        /* \"index_insurance.sol\":3320:3340  checkDrought(region) */\n      tag_122\n        /* \"index_insurance.sol\":3333:3339  region */\n      dup3\n        /* \"index_insurance.sol\":3320:3332  checkDrought */\n      tag_58\n        /* \"index_insurance.sol\":3320:3340  checkDrought(region) */\n      jump\t// in\n    tag_122:\n        /* \"index_insurance.sol\":3303:3340  bool isDrought = checkDrought(region) */\n      swap1\n      pop\n        /* \"index_insurance.sol\":3412:3421  isDrought */\n      dup1\n        /* \"index_insurance.sol\":3408:3587  if (isDrought) {... */\n      iszero\n      tag_123\n      jumpi\n        /* \"index_insurance.sol\":3440:3450  msg.sender */\n      caller\n        /* \"index_insurance.sol\":3432:3460  payable(msg.sender).transfer */\n      0xffffffffffffffffffffffffffffffffffffffff\n      and\n        /* \"index_insurance.sol\":3432:3468  payable(msg.sender).transfer(amount) */\n      0x08fc\n        /* \"index_insurance.sol\":3461:3467  amount */\n      dup5\n        /* \"index_insurance.sol\":3432:3468  payable(msg.sender).transfer(amount) */\n      swap1\n      dup2\n      iszero\n      mul\n      swap1\n      mload(0x40)\n      0x00\n      mload(0x40)\n      dup1\n      dup4\n      sub\n      dup2\n      dup6\n      dup9\n      dup9\n      call\n      swap4\n      pop\n      pop\n      pop\n      pop\n      iszero\n      dup1\n      iszero\n      tag_125\n      jumpi\n      returndatasize\n      0x00\n      dup1\n      returndatacopy\n      revert(0x00, returndatasize)\n    tag_125:\n      pop\n        /* \"index_insurance.sol\":3534:3540  amount */\n      dup3\n        /* \"index_insurance.sol\":3500:3518  farmerToObligation */\n      0x0a\n        /* \"index_insurance.sol\":3500:3530  farmerToObligation[msg.sender] */\n      0x00\n        /* \"index_insurance.sol\":3519:3529  msg.sender */\n      caller\n        /* \"index_insurance.sol\":3500:3530  farmerToObligation[msg.sender] */\n      0xffffffffffffffffffffffffffffffffffffffff\n      and\n      0xffffffffffffffffffffffffffffffffffffffff\n      and\n      dup2\n      mstore\n      0x20\n      add\n      swap1\n      dup2\n      mstore\n      0x20\n      add\n      0x00\n      keccak256\n      0x00\n        /* \"index_insurance.sol\":3500:3540  farmerToObligation[msg.sender] -= amount */\n      dup3\n      dup3\n      sload\n      tag_126\n      swap2\n      swap1\n      tag_127\n      jump\t// in\n    tag_126:\n      swap3\n      pop\n      pop\n      dup2\n      swap1\n      sstore\n      pop\n        /* \"index_insurance.sol\":3408:3587  if (isDrought) {... */\n    tag_123:\n        /* \"index_insurance.sol\":3160:3592  {... */\n      pop\n        /* \"index_insurance.sol\":3112:3592  function claim(uint amount, uint region) public {... */\n      pop\n      pop\n      jump\t// out\n        /* \"index_insurance.sol\":290:309  uint public premium */\n    tag_79:\n      sload(0x00)\n      dup2\n      jump\t// out\n        /* \"index_insurance.sol\":2075:2281  function register(string memory _firstName, string memory _lastName, uint _region) public {... */\n    tag_85:\n        /* \"index_insurance.sol\":2184:2234  Farmer(_firstName, _lastName, _region, msg.sender) */\n      mload(0x40)\n      dup1\n      0x80\n      add\n      0x40\n      mstore\n      dup1\n        /* \"index_insurance.sol\":2191:2201  _firstName */\n      dup5\n        /* \"index_insurance.sol\":2184:2234  Farmer(_firstName, _lastName, _region, msg.sender) */\n      dup2\n      mstore\n      0x20\n      add\n        /* \"index_insurance.sol\":2203:2212  _lastName */\n      dup4\n        /* \"index_insurance.sol\":2184:2234  Farmer(_firstName, _lastName, _region, msg.sender) */\n      dup2\n      mstore\n      0x20\n      add\n        /* \"index_insurance.sol\":2214:2221  _region */\n      dup3\n        /* \"index_insurance.sol\":2184:2234  Farmer(_firstName, _lastName, _region, msg.sender) */\n      dup2\n      mstore\n      0x20\n      add\n        /* \"index_insurance.sol\":2223:2233  msg.sender */\n      caller\n        /* \"index_insurance.sol\":2184:2234  Farmer(_firstName, _lastName, _region, msg.sender) */\n      0xffffffffffffffffffffffffffffffffffffffff\n      and\n      dup2\n      mstore\n      pop\n        /* \"index_insurance.sol\":2172:2181  newFarmer */\n      0x06\n        /* \"index_insurance.sol\":2172:2234  newFarmer = Farmer(_firstName, _lastName, _region, msg.sender) */\n      0x00\n      dup3\n      add\n      mload\n      dup2\n      0x00\n      add\n      swap1\n      dup2\n      tag_129\n      swap2\n      swap1\n      tag_130\n      jump\t// in\n    tag_129:\n      pop\n      0x20\n      dup3\n      add\n      mload\n      dup2\n      0x01\n      add\n      swap1\n      dup2\n      tag_131\n      swap2\n      swap1\n      tag_130\n      jump\t// in\n    tag_131:\n      pop\n      0x40\n      dup3\n      add\n      mload\n      dup2\n      0x02\n      add\n      sstore\n      0x60\n      dup3\n      add\n      mload\n      dup2\n      0x03\n      add\n      exp(0x0100, 0x00)\n      dup2\n      sload\n      dup2\n      0xffffffffffffffffffffffffffffffffffffffff\n      mul\n      not\n      and\n      swap1\n      dup4\n      0xffffffffffffffffffffffffffffffffffffffff\n      and\n      mul\n      or\n      swap1\n      sstore\n      pop\n      swap1\n      pop\n      pop\n        /* \"index_insurance.sol\":2274:2275  0 */\n      0x00\n        /* \"index_insurance.sol\":2241:2259  farmerToObligation */\n      0x0a\n        /* \"index_insurance.sol\":2241:2271  farmerToObligation[msg.sender] */\n      0x00\n        /* \"index_insurance.sol\":2260:2270  msg.sender */\n      caller\n        /* \"index_insurance.sol\":2241:2271  farmerToObligation[msg.sender] */\n      0xffffffffffffffffffffffffffffffffffffffff\n      and\n      0xffffffffffffffffffffffffffffffffffffffff\n      and\n      dup2\n      mstore\n      0x20\n      add\n      swap1\n      dup2\n      mstore\n      0x20\n      add\n      0x00\n      keccak256\n        /* \"index_insurance.sol\":2241:2275  farmerToObligation[msg.sender] = 0 */\n      dup2\n      swap1\n      sstore\n      pop\n        /* \"index_insurance.sol\":2075:2281  function register(string memory _firstName, string memory _lastName, uint _region) public {... */\n      pop\n      pop\n      pop\n      jump\t// out\n        /* \"index_insurance.sol\":408:433  int public indexThreshold */\n    tag_88:\n      sload(0x02)\n      dup2\n      jump\t// out\n        /* \"#utility.yul\":7:133   */\n    tag_132:\n        /* \"#utility.yul\":44:51   */\n      0x00\n        /* \"#utility.yul\":84:126   */\n      0xffffffffffffffffffffffffffffffffffffffff\n        /* \"#utility.yul\":77:82   */\n      dup3\n        /* \"#utility.yul\":73:127   */\n      and\n        /* \"#utility.yul\":62:127   */\n      swap1\n      pop\n        /* \"#utility.yul\":7:133   */\n      swap2\n      swap1\n      pop\n      jump\t// out\n        /* \"#utility.yul\":139:235   */\n    tag_133:\n        /* \"#utility.yul\":176:183   */\n      0x00\n        /* \"#utility.yul\":205:229   */\n      tag_190\n        /* \"#utility.yul\":223:228   */\n      dup3\n        /* \"#utility.yul\":205:229   */\n      tag_132\n      jump\t// in\n    tag_190:\n        /* \"#utility.yul\":194:229   */\n      swap1\n      pop\n        /* \"#utility.yul\":139:235   */\n      swap2\n      swap1\n      pop\n      jump\t// out\n        /* \"#utility.yul\":241:359   */\n    tag_134:\n        /* \"#utility.yul\":328:352   */\n      tag_192\n        /* \"#utility.yul\":346:351   */\n      dup2\n        /* \"#utility.yul\":328:352   */\n      tag_133\n      jump\t// in\n    tag_192:\n        /* \"#utility.yul\":323:326   */\n      dup3\n        /* \"#utility.yul\":316:353   */\n      mstore\n        /* \"#utility.yul\":241:359   */\n      pop\n      pop\n      jump\t// out\n        /* \"#utility.yul\":365:587   */\n    tag_24:\n        /* \"#utility.yul\":458:462   */\n      0x00\n        /* \"#utility.yul\":496:498   */\n      0x20\n        /* \"#utility.yul\":485:494   */\n      dup3\n        /* \"#utility.yul\":481:499   */\n      add\n        /* \"#utility.yul\":473:499   */\n      swap1\n      pop\n        /* \"#utility.yul\":509:580   */\n      tag_194\n        /* \"#utility.yul\":577:578   */\n      0x00\n        /* \"#utility.yul\":566:575   */\n      dup4\n        /* \"#utility.yul\":562:579   */\n      add\n        /* \"#utility.yul\":553:559   */\n      dup5\n        /* \"#utility.yul\":509:580   */\n      tag_134\n      jump\t// in\n    tag_194:\n        /* \"#utility.yul\":365:587   */\n      swap3\n      swap2\n      pop\n      pop\n      jump\t// out\n        /* \"#utility.yul\":593:668   */\n    tag_135:\n        /* \"#utility.yul\":626:632   */\n      0x00\n        /* \"#utility.yul\":659:661   */\n      0x40\n        /* \"#utility.yul\":653:662   */\n      mload\n        /* \"#utility.yul\":643:662   */\n      swap1\n      pop\n        /* \"#utility.yul\":593:668   */\n      swap1\n      jump\t// out\n        /* \"#utility.yul\":674:791   */\n    tag_136:\n        /* \"#utility.yul\":783:784   */\n      0x00\n        /* \"#utility.yul\":780:781   */\n      dup1\n        /* \"#utility.yul\":773:785   */\n      revert\n        /* \"#utility.yul\":797:914   */\n    tag_137:\n        /* \"#utility.yul\":906:907   */\n      0x00\n        /* \"#utility.yul\":903:904   */\n      dup1\n        /* \"#utility.yul\":896:908   */\n      revert\n        /* \"#utility.yul\":920:997   */\n    tag_138:\n        /* \"#utility.yul\":957:964   */\n      0x00\n        /* \"#utility.yul\":986:991   */\n      dup2\n        /* \"#utility.yul\":975:991   */\n      swap1\n      pop\n        /* \"#utility.yul\":920:997   */\n      swap2\n      swap1\n      pop\n      jump\t// out\n        /* \"#utility.yul\":1003:1125   */\n    tag_139:\n        /* \"#utility.yul\":1076:1100   */\n      tag_200\n        /* \"#utility.yul\":1094:1099   */\n      dup2\n        /* \"#utility.yul\":1076:1100   */\n      tag_138\n      jump\t// in\n    tag_200:\n        /* \"#utility.yul\":1069:1074   */\n      dup2\n        /* \"#utility.yul\":1066:1101   */\n      eq\n        /* \"#utility.yul\":1056:1119   */\n      tag_201\n      jumpi\n        /* \"#utility.yul\":1115:1116   */\n      0x00\n        /* \"#utility.yul\":1112:1113   */\n      dup1\n        /* \"#utility.yul\":1105:1117   */\n      revert\n        /* \"#utility.yul\":1056:1119   */\n    tag_201:\n        /* \"#utility.yul\":1003:1125   */\n      pop\n      jump\t// out\n        /* \"#utility.yul\":1131:1270   */\n    tag_140:\n        /* \"#utility.yul\":1177:1182   */\n      0x00\n        /* \"#utility.yul\":1215:1221   */\n      dup2\n        /* \"#utility.yul\":1202:1222   */\n      calldataload\n        /* \"#utility.yul\":1193:1222   */\n      swap1\n      pop\n        /* \"#utility.yul\":1231:1264   */\n      tag_203\n        /* \"#utility.yul\":1258:1263   */\n      dup2\n        /* \"#utility.yul\":1231:1264   */\n      tag_139\n      jump\t// in\n    tag_203:\n        /* \"#utility.yul\":1131:1270   */\n      swap3\n      swap2\n      pop\n      pop\n      jump\t// out\n        /* \"#utility.yul\":1276:1605   */\n    tag_28:\n        /* \"#utility.yul\":1335:1341   */\n      0x00\n        /* \"#utility.yul\":1384:1386   */\n      0x20\n        /* \"#utility.yul\":1372:1381   */\n      dup3\n        /* \"#utility.yul\":1363:1370   */\n      dup5\n        /* \"#utility.yul\":1359:1382   */\n      sub\n        /* \"#utility.yul\":1355:1387   */\n      slt\n        /* \"#utility.yul\":1352:1471   */\n      iszero\n      tag_205\n      jumpi\n        /* \"#utility.yul\":1390:1469   */\n      tag_206\n      tag_136\n      jump\t// in\n    tag_206:\n        /* \"#utility.yul\":1352:1471   */\n    tag_205:\n        /* \"#utility.yul\":1510:1511   */\n      0x00\n        /* \"#utility.yul\":1535:1588   */\n      tag_207\n        /* \"#utility.yul\":1580:1587   */\n      dup5\n        /* \"#utility.yul\":1571:1577   */\n      dup3\n        /* \"#utility.yul\":1560:1569   */\n      dup6\n        /* \"#utility.yul\":1556:1578   */\n      add\n        /* \"#utility.yul\":1535:1588   */\n      tag_140\n      jump\t// in\n    tag_207:\n        /* \"#utility.yul\":1525:1588   */\n      swap2\n      pop\n        /* \"#utility.yul\":1481:1598   */\n      pop\n        /* \"#utility.yul\":1276:1605   */\n      swap3\n      swap2\n      pop\n      pop\n      jump\t// out\n        /* \"#utility.yul\":1611:1733   */\n    tag_141:\n        /* \"#utility.yul\":1684:1708   */\n      tag_209\n        /* \"#utility.yul\":1702:1707   */\n      dup2\n        /* \"#utility.yul\":1684:1708   */\n      tag_133\n      jump\t// in\n    tag_209:\n        /* \"#utility.yul\":1677:1682   */\n      dup2\n        /* \"#utility.yul\":1674:1709   */\n      eq\n        /* \"#utility.yul\":1664:1727   */\n      tag_210\n      jumpi\n        /* \"#utility.yul\":1723:1724   */\n      0x00\n        /* \"#utility.yul\":1720:1721   */\n      dup1\n        /* \"#utility.yul\":1713:1725   */\n      revert\n        /* \"#utility.yul\":1664:1727   */\n    tag_210:\n        /* \"#utility.yul\":1611:1733   */\n      pop\n      jump\t// out\n        /* \"#utility.yul\":1739:1878   */\n    tag_142:\n        /* \"#utility.yul\":1785:1790   */\n      0x00\n        /* \"#utility.yul\":1823:1829   */\n      dup2\n        /* \"#utility.yul\":1810:1830   */\n      calldataload\n        /* \"#utility.yul\":1801:1830   */\n      swap1\n      pop\n        /* \"#utility.yul\":1839:1872   */\n      tag_212\n        /* \"#utility.yul\":1866:1871   */\n      dup2\n        /* \"#utility.yul\":1839:1872   */\n      tag_141\n      jump\t// in\n    tag_212:\n        /* \"#utility.yul\":1739:1878   */\n      swap3\n      swap2\n      pop\n      pop\n      jump\t// out\n        /* \"#utility.yul\":1884:2213   */\n    tag_33:\n        /* \"#utility.yul\":1943:1949   */\n      0x00\n        /* \"#utility.yul\":1992:1994   */\n      0x20\n        /* \"#utility.yul\":1980:1989   */\n      dup3\n        /* \"#utility.yul\":1971:1978   */\n      dup5\n        /* \"#utility.yul\":1967:1990   */\n      sub\n        /* \"#utility.yul\":1963:1995   */\n      slt\n        /* \"#utility.yul\":1960:2079   */\n      iszero\n      tag_214\n      jumpi\n        /* \"#utility.yul\":1998:2077   */\n      tag_215\n      tag_136\n      jump\t// in\n    tag_215:\n        /* \"#utility.yul\":1960:2079   */\n    tag_214:\n        /* \"#utility.yul\":2118:2119   */\n      0x00\n        /* \"#utility.yul\":2143:2196   */\n      tag_216\n        /* \"#utility.yul\":2188:2195   */\n      dup5\n        /* \"#utility.yul\":2179:2185   */\n      dup3\n        /* \"#utility.yul\":2168:2177   */\n      dup6\n        /* \"#utility.yul\":2164:2186   */\n      add\n        /* \"#utility.yul\":2143:2196   */\n      tag_142\n      jump\t// in\n    tag_216:\n        /* \"#utility.yul\":2133:2196   */\n      swap2\n      pop\n        /* \"#utility.yul\":2089:2206   */\n      pop\n        /* \"#utility.yul\":1884:2213   */\n      swap3\n      swap2\n      pop\n      pop\n      jump\t// out\n        /* \"#utility.yul\":2219:2337   */\n    tag_143:\n        /* \"#utility.yul\":2306:2330   */\n      tag_218\n        /* \"#utility.yul\":2324:2329   */\n      dup2\n        /* \"#utility.yul\":2306:2330   */\n      tag_138\n      jump\t// in\n    tag_218:\n        /* \"#utility.yul\":2301:2304   */\n      dup3\n        /* \"#utility.yul\":2294:2331   */\n      mstore\n        /* \"#utility.yul\":2219:2337   */\n      pop\n      pop\n      jump\t// out\n        /* \"#utility.yul\":2343:2565   */\n    tag_36:\n        /* \"#utility.yul\":2436:2440   */\n      0x00\n        /* \"#utility.yul\":2474:2476   */\n      0x20\n        /* \"#utility.yul\":2463:2472   */\n      dup3\n        /* \"#utility.yul\":2459:2477   */\n      add\n        /* \"#utility.yul\":2451:2477   */\n      swap1\n      pop\n        /* \"#utility.yul\":2487:2558   */\n      tag_220\n        /* \"#utility.yul\":2555:2556   */\n      0x00\n        /* \"#utility.yul\":2544:2553   */\n      dup4\n        /* \"#utility.yul\":2540:2557   */\n      add\n        /* \"#utility.yul\":2531:2537   */\n      dup5\n        /* \"#utility.yul\":2487:2558   */\n      tag_143\n      jump\t// in\n    tag_220:\n        /* \"#utility.yul\":2343:2565   */\n      swap3\n      swap2\n      pop\n      pop\n      jump\t// out\n        /* \"#utility.yul\":2571:2670   */\n    tag_144:\n        /* \"#utility.yul\":2623:2629   */\n      0x00\n        /* \"#utility.yul\":2657:2662   */\n      dup2\n        /* \"#utility.yul\":2651:2663   */\n      mload\n        /* \"#utility.yul\":2641:2663   */\n      swap1\n      pop\n        /* \"#utility.yul\":2571:2670   */\n      swap2\n      swap1\n      pop\n      jump\t// out\n        /* \"#utility.yul\":2676:2845   */\n    tag_145:\n        /* \"#utility.yul\":2760:2771   */\n      0x00\n        /* \"#utility.yul\":2794:2800   */\n      dup3\n        /* \"#utility.yul\":2789:2792   */\n      dup3\n        /* \"#utility.yul\":2782:2801   */\n      mstore\n        /* \"#utility.yul\":2834:2838   */\n      0x20\n        /* \"#utility.yul\":2829:2832   */\n      dup3\n        /* \"#utility.yul\":2825:2839   */\n      add\n        /* \"#utility.yul\":2810:2839   */\n      swap1\n      pop\n        /* \"#utility.yul\":2676:2845   */\n      swap3\n      swap2\n      pop\n      pop\n      jump\t// out\n        /* \"#utility.yul\":2851:3097   */\n    tag_146:\n        /* \"#utility.yul\":2932:2933   */\n      0x00\n        /* \"#utility.yul\":2942:3055   */\n    tag_224:\n        /* \"#utility.yul\":2956:2962   */\n      dup4\n        /* \"#utility.yul\":2953:2954   */\n      dup2\n        /* \"#utility.yul\":2950:2963   */\n      lt\n        /* \"#utility.yul\":2942:3055   */\n      iszero\n      tag_226\n      jumpi\n        /* \"#utility.yul\":3041:3042   */\n      dup1\n        /* \"#utility.yul\":3036:3039   */\n      dup3\n        /* \"#utility.yul\":3032:3043   */\n      add\n        /* \"#utility.yul\":3026:3044   */\n      mload\n        /* \"#utility.yul\":3022:3023   */\n      dup2\n        /* \"#utility.yul\":3017:3020   */\n      dup5\n        /* \"#utility.yul\":3013:3024   */\n      add\n        /* \"#utility.yul\":3006:3045   */\n      mstore\n        /* \"#utility.yul\":2978:2980   */\n      0x20\n        /* \"#utility.yul\":2975:2976   */\n      dup2\n        /* \"#utility.yul\":2971:2981   */\n      add\n        /* \"#utility.yul\":2966:2981   */\n      swap1\n      pop\n        /* \"#utility.yul\":2942:3055   */\n      jump(tag_224)\n    tag_226:\n        /* \"#utility.yul\":3089:3090   */\n      0x00\n        /* \"#utility.yul\":3080:3086   */\n      dup5\n        /* \"#utility.yul\":3075:3078   */\n      dup5\n        /* \"#utility.yul\":3071:3087   */\n      add\n        /* \"#utility.yul\":3064:3091   */\n      mstore\n        /* \"#utility.yul\":2913:3097   */\n      pop\n        /* \"#utility.yul\":2851:3097   */\n      pop\n      pop\n      pop\n      jump\t// out\n        /* \"#utility.yul\":3103:3205   */\n    tag_147:\n        /* \"#utility.yul\":3144:3150   */\n      0x00\n        /* \"#utility.yul\":3195:3197   */\n      0x1f\n        /* \"#utility.yul\":3191:3198   */\n      not\n        /* \"#utility.yul\":3186:3188   */\n      0x1f\n        /* \"#utility.yul\":3179:3184   */\n      dup4\n        /* \"#utility.yul\":3175:3189   */\n      add\n        /* \"#utility.yul\":3171:3199   */\n      and\n        /* \"#utility.yul\":3161:3199   */\n      swap1\n      pop\n        /* \"#utility.yul\":3103:3205   */\n      swap2\n      swap1\n      pop\n      jump\t// out\n        /* \"#utility.yul\":3211:3588   */\n    tag_148:\n        /* \"#utility.yul\":3299:3302   */\n      0x00\n        /* \"#utility.yul\":3327:3366   */\n      tag_229\n        /* \"#utility.yul\":3360:3365   */\n      dup3\n        /* \"#utility.yul\":3327:3366   */\n      tag_144\n      jump\t// in\n    tag_229:\n        /* \"#utility.yul\":3382:3453   */\n      tag_230\n        /* \"#utility.yul\":3446:3452   */\n      dup2\n        /* \"#utility.yul\":3441:3444   */\n      dup6\n        /* \"#utility.yul\":3382:3453   */\n      tag_145\n      jump\t// in\n    tag_230:\n        /* \"#utility.yul\":3375:3453   */\n      swap4\n      pop\n        /* \"#utility.yul\":3462:3527   */\n      tag_231\n        /* \"#utility.yul\":3520:3526   */\n      dup2\n        /* \"#utility.yul\":3515:3518   */\n      dup6\n        /* \"#utility.yul\":3508:3512   */\n      0x20\n        /* \"#utility.yul\":3501:3506   */\n      dup7\n        /* \"#utility.yul\":3497:3513   */\n      add\n        /* \"#utility.yul\":3462:3527   */\n      tag_146\n      jump\t// in\n    tag_231:\n        /* \"#utility.yul\":3552:3581   */\n      tag_232\n        /* \"#utility.yul\":3574:3580   */\n      dup2\n        /* \"#utility.yul\":3552:3581   */\n      tag_147\n      jump\t// in\n    tag_232:\n        /* \"#utility.yul\":3547:3550   */\n      dup5\n        /* \"#utility.yul\":3543:3582   */\n      add\n        /* \"#utility.yul\":3536:3582   */\n      swap2\n      pop\n        /* \"#utility.yul\":3303:3588   */\n      pop\n        /* \"#utility.yul\":3211:3588   */\n      swap3\n      swap2\n      pop\n      pop\n      jump\t// out\n        /* \"#utility.yul\":3594:4329   */\n    tag_41:\n        /* \"#utility.yul\":3811:3815   */\n      0x00\n        /* \"#utility.yul\":3849:3852   */\n      0x80\n        /* \"#utility.yul\":3838:3847   */\n      dup3\n        /* \"#utility.yul\":3834:3853   */\n      add\n        /* \"#utility.yul\":3826:3853   */\n      swap1\n      pop\n        /* \"#utility.yul\":3899:3908   */\n      dup2\n        /* \"#utility.yul\":3893:3897   */\n      dup2\n        /* \"#utility.yul\":3889:3909   */\n      sub\n        /* \"#utility.yul\":3885:3886   */\n      0x00\n        /* \"#utility.yul\":3874:3883   */\n      dup4\n        /* \"#utility.yul\":3870:3887   */\n      add\n        /* \"#utility.yul\":3863:3910   */\n      mstore\n        /* \"#utility.yul\":3927:4005   */\n      tag_234\n        /* \"#utility.yul\":4000:4004   */\n      dup2\n        /* \"#utility.yul\":3991:3997   */\n      dup8\n        /* \"#utility.yul\":3927:4005   */\n      tag_148\n      jump\t// in\n    tag_234:\n        /* \"#utility.yul\":3919:4005   */\n      swap1\n      pop\n        /* \"#utility.yul\":4052:4061   */\n      dup2\n        /* \"#utility.yul\":4046:4050   */\n      dup2\n        /* \"#utility.yul\":4042:4062   */\n      sub\n        /* \"#utility.yul\":4037:4039   */\n      0x20\n        /* \"#utility.yul\":4026:4035   */\n      dup4\n        /* \"#utility.yul\":4022:4040   */\n      add\n        /* \"#utility.yul\":4015:4063   */\n      mstore\n        /* \"#utility.yul\":4080:4158   */\n      tag_235\n        /* \"#utility.yul\":4153:4157   */\n      dup2\n        /* \"#utility.yul\":4144:4150   */\n      dup7\n        /* \"#utility.yul\":4080:4158   */\n      tag_148\n      jump\t// in\n    tag_235:\n        /* \"#utility.yul\":4072:4158   */\n      swap1\n      pop\n        /* \"#utility.yul\":4168:4240   */\n      tag_236\n        /* \"#utility.yul\":4236:4238   */\n      0x40\n        /* \"#utility.yul\":4225:4234   */\n      dup4\n        /* \"#utility.yul\":4221:4239   */\n      add\n        /* \"#utility.yul\":4212:4218   */\n      dup6\n        /* \"#utility.yul\":4168:4240   */\n      tag_143\n      jump\t// in\n    tag_236:\n        /* \"#utility.yul\":4250:4322   */\n      tag_237\n        /* \"#utility.yul\":4318:4320   */\n      0x60\n        /* \"#utility.yul\":4307:4316   */\n      dup4\n        /* \"#utility.yul\":4303:4321   */\n      add\n        /* \"#utility.yul\":4294:4300   */\n      dup5\n        /* \"#utility.yul\":4250:4322   */\n      tag_134\n      jump\t// in\n    tag_237:\n        /* \"#utility.yul\":3594:4329   */\n      swap6\n      swap5\n      pop\n      pop\n      pop\n      pop\n      pop\n      jump\t// out\n        /* \"#utility.yul\":4335:4411   */\n    tag_149:\n        /* \"#utility.yul\":4371:4378   */\n      0x00\n        /* \"#utility.yul\":4400:4405   */\n      dup2\n        /* \"#utility.yul\":4389:4405   */\n      swap1\n      pop\n        /* \"#utility.yul\":4335:4411   */\n      swap2\n      swap1\n      pop\n      jump\t// out\n        /* \"#utility.yul\":4417:4532   */\n    tag_150:\n        /* \"#utility.yul\":4502:4525   */\n      tag_240\n        /* \"#utility.yul\":4519:4524   */\n      dup2\n        /* \"#utility.yul\":4502:4525   */\n      tag_149\n      jump\t// in\n    tag_240:\n        /* \"#utility.yul\":4497:4500   */\n      dup3\n        /* \"#utility.yul\":4490:4526   */\n      mstore\n        /* \"#utility.yul\":4417:4532   */\n      pop\n      pop\n      jump\t// out\n        /* \"#utility.yul\":4538:4756   */\n    tag_46:\n        /* \"#utility.yul\":4629:4633   */\n      0x00\n        /* \"#utility.yul\":4667:4669   */\n      0x20\n        /* \"#utility.yul\":4656:4665   */\n      dup3\n        /* \"#utility.yul\":4652:4670   */\n      add\n        /* \"#utility.yul\":4644:4670   */\n      swap1\n      pop\n        /* \"#utility.yul\":4680:4749   */\n      tag_242\n        /* \"#utility.yul\":4746:4747   */\n      0x00\n        /* \"#utility.yul\":4735:4744   */\n      dup4\n        /* \"#utility.yul\":4731:4748   */\n      add\n        /* \"#utility.yul\":4722:4728   */\n      dup5\n        /* \"#utility.yul\":4680:4749   */\n      tag_150\n      jump\t// in\n    tag_242:\n        /* \"#utility.yul\":4538:4756   */\n      swap3\n      swap2\n      pop\n      pop\n      jump\t// out\n        /* \"#utility.yul\":4762:4852   */\n    tag_151:\n        /* \"#utility.yul\":4796:4803   */\n      0x00\n        /* \"#utility.yul\":4839:4844   */\n      dup2\n        /* \"#utility.yul\":4832:4845   */\n      iszero\n        /* \"#utility.yul\":4825:4846   */\n      iszero\n        /* \"#utility.yul\":4814:4846   */\n      swap1\n      pop\n        /* \"#utility.yul\":4762:4852   */\n      swap2\n      swap1\n      pop\n      jump\t// out\n        /* \"#utility.yul\":4858:4967   */\n    tag_152:\n        /* \"#utility.yul\":4939:4960   */\n      tag_245\n        /* \"#utility.yul\":4954:4959   */\n      dup2\n        /* \"#utility.yul\":4939:4960   */\n      tag_151\n      jump\t// in\n    tag_245:\n        /* \"#utility.yul\":4934:4937   */\n      dup3\n        /* \"#utility.yul\":4927:4961   */\n      mstore\n        /* \"#utility.yul\":4858:4967   */\n      pop\n      pop\n      jump\t// out\n        /* \"#utility.yul\":4973:5183   */\n    tag_60:\n        /* \"#utility.yul\":5060:5064   */\n      0x00\n        /* \"#utility.yul\":5098:5100   */\n      0x20\n        /* \"#utility.yul\":5087:5096   */\n      dup3\n        /* \"#utility.yul\":5083:5101   */\n      add\n        /* \"#utility.yul\":5075:5101   */\n      swap1\n      pop\n        /* \"#utility.yul\":5111:5176   */\n      tag_247\n        /* \"#utility.yul\":5173:5174   */\n      0x00\n        /* \"#utility.yul\":5162:5171   */\n      dup4\n        /* \"#utility.yul\":5158:5175   */\n      add\n        /* \"#utility.yul\":5149:5155   */\n      dup5\n        /* \"#utility.yul\":5111:5176   */\n      tag_152\n      jump\t// in\n    tag_247:\n        /* \"#utility.yul\":4973:5183   */\n      swap3\n      swap2\n      pop\n      pop\n      jump\t// out\n        /* \"#utility.yul\":5189:5663   */\n    tag_75:\n        /* \"#utility.yul\":5257:5263   */\n      0x00\n        /* \"#utility.yul\":5265:5271   */\n      dup1\n        /* \"#utility.yul\":5314:5316   */\n      0x40\n        /* \"#utility.yul\":5302:5311   */\n      dup4\n        /* \"#utility.yul\":5293:5300   */\n      dup6\n        /* \"#utility.yul\":5289:5312   */\n      sub\n        /* \"#utility.yul\":5285:5317   */\n      slt\n        /* \"#utility.yul\":5282:5401   */\n      iszero\n      tag_249\n      jumpi\n        /* \"#utility.yul\":5320:5399   */\n      tag_250\n      tag_136\n      jump\t// in\n    tag_250:\n        /* \"#utility.yul\":5282:5401   */\n    tag_249:\n        /* \"#utility.yul\":5440:5441   */\n      0x00\n        /* \"#utility.yul\":5465:5518   */\n      tag_251\n        /* \"#utility.yul\":5510:5517   */\n      dup6\n        /* \"#utility.yul\":5501:5507   */\n      dup3\n        /* \"#utility.yul\":5490:5499   */\n      dup7\n        /* \"#utility.yul\":5486:5508   */\n      add\n        /* \"#utility.yul\":5465:5518   */\n      tag_140\n      jump\t// in\n    tag_251:\n        /* \"#utility.yul\":5455:5518   */\n      swap3\n      pop\n        /* \"#utility.yul\":5411:5528   */\n      pop\n        /* \"#utility.yul\":5567:5569   */\n      0x20\n        /* \"#utility.yul\":5593:5646   */\n      tag_252\n        /* \"#utility.yul\":5638:5645   */\n      dup6\n        /* \"#utility.yul\":5629:5635   */\n      dup3\n        /* \"#utility.yul\":5618:5627   */\n      dup7\n        /* \"#utility.yul\":5614:5636   */\n      add\n        /* \"#utility.yul\":5593:5646   */\n      tag_140\n      jump\t// in\n    tag_252:\n        /* \"#utility.yul\":5583:5646   */\n      swap2\n      pop\n        /* \"#utility.yul\":5538:5656   */\n      pop\n        /* \"#utility.yul\":5189:5663   */\n      swap3\n      pop\n      swap3\n      swap1\n      pop\n      jump\t// out\n        /* \"#utility.yul\":5669:5786   */\n    tag_153:\n        /* \"#utility.yul\":5778:5779   */\n      0x00\n        /* \"#utility.yul\":5775:5776   */\n      dup1\n        /* \"#utility.yul\":5768:5780   */\n      revert\n        /* \"#utility.yul\":5792:5909   */\n    tag_154:\n        /* \"#utility.yul\":5901:5902   */\n      0x00\n        /* \"#utility.yul\":5898:5899   */\n      dup1\n        /* \"#utility.yul\":5891:5903   */\n      revert\n        /* \"#utility.yul\":5915:6095   */\n    tag_155:\n        /* \"#utility.yul\":5963:6040   */\n      0x4e487b7100000000000000000000000000000000000000000000000000000000\n        /* \"#utility.yul\":5960:5961   */\n      0x00\n        /* \"#utility.yul\":5953:6041   */\n      mstore\n        /* \"#utility.yul\":6060:6064   */\n      0x41\n        /* \"#utility.yul\":6057:6058   */\n      0x04\n        /* \"#utility.yul\":6050:6065   */\n      mstore\n        /* \"#utility.yul\":6084:6088   */\n      0x24\n        /* \"#utility.yul\":6081:6082   */\n      0x00\n        /* \"#utility.yul\":6074:6089   */\n      revert\n        /* \"#utility.yul\":6101:6382   */\n    tag_156:\n        /* \"#utility.yul\":6184:6211   */\n      tag_257\n        /* \"#utility.yul\":6206:6210   */\n      dup3\n        /* \"#utility.yul\":6184:6211   */\n      tag_147\n      jump\t// in\n    tag_257:\n        /* \"#utility.yul\":6176:6182   */\n      dup2\n        /* \"#utility.yul\":6172:6212   */\n      add\n        /* \"#utility.yul\":6314:6320   */\n      dup2\n        /* \"#utility.yul\":6302:6312   */\n      dup2\n        /* \"#utility.yul\":6299:6321   */\n      lt\n        /* \"#utility.yul\":6278:6296   */\n      0xffffffffffffffff\n        /* \"#utility.yul\":6266:6276   */\n      dup3\n        /* \"#utility.yul\":6263:6297   */\n      gt\n        /* \"#utility.yul\":6260:6322   */\n      or\n        /* \"#utility.yul\":6257:6345   */\n      iszero\n      tag_258\n      jumpi\n        /* \"#utility.yul\":6325:6343   */\n      tag_259\n      tag_155\n      jump\t// in\n    tag_259:\n        /* \"#utility.yul\":6257:6345   */\n    tag_258:\n        /* \"#utility.yul\":6365:6375   */\n      dup1\n        /* \"#utility.yul\":6361:6363   */\n      0x40\n        /* \"#utility.yul\":6354:6376   */\n      mstore\n        /* \"#utility.yul\":6144:6382   */\n      pop\n        /* \"#utility.yul\":6101:6382   */\n      pop\n      pop\n      jump\t// out\n        /* \"#utility.yul\":6388:6517   */\n    tag_157:\n        /* \"#utility.yul\":6422:6428   */\n      0x00\n        /* \"#utility.yul\":6449:6469   */\n      tag_261\n      tag_135\n      jump\t// in\n    tag_261:\n        /* \"#utility.yul\":6439:6469   */\n      swap1\n      pop\n        /* \"#utility.yul\":6478:6511   */\n      tag_262\n        /* \"#utility.yul\":6506:6510   */\n      dup3\n        /* \"#utility.yul\":6498:6504   */\n      dup3\n        /* \"#utility.yul\":6478:6511   */\n      tag_156\n      jump\t// in\n    tag_262:\n        /* \"#utility.yul\":6388:6517   */\n      swap2\n      swap1\n      pop\n      jump\t// out\n        /* \"#utility.yul\":6523:6831   */\n    tag_158:\n        /* \"#utility.yul\":6585:6589   */\n      0x00\n        /* \"#utility.yul\":6675:6693   */\n      0xffffffffffffffff\n        /* \"#utility.yul\":6667:6673   */\n      dup3\n        /* \"#utility.yul\":6664:6694   */\n      gt\n        /* \"#utility.yul\":6661:6717   */\n      iszero\n      tag_264\n      jumpi\n        /* \"#utility.yul\":6697:6715   */\n      tag_265\n      tag_155\n      jump\t// in\n    tag_265:\n        /* \"#utility.yul\":6661:6717   */\n    tag_264:\n        /* \"#utility.yul\":6735:6764   */\n      tag_266\n        /* \"#utility.yul\":6757:6763   */\n      dup3\n        /* \"#utility.yul\":6735:6764   */\n      tag_147\n      jump\t// in\n    tag_266:\n        /* \"#utility.yul\":6727:6764   */\n      swap1\n      pop\n        /* \"#utility.yul\":6819:6823   */\n      0x20\n        /* \"#utility.yul\":6813:6817   */\n      dup2\n        /* \"#utility.yul\":6809:6824   */\n      add\n        /* \"#utility.yul\":6801:6824   */\n      swap1\n      pop\n        /* \"#utility.yul\":6523:6831   */\n      swap2\n      swap1\n      pop\n      jump\t// out\n        /* \"#utility.yul\":6837:6983   */\n    tag_159:\n        /* \"#utility.yul\":6934:6940   */\n      dup3\n        /* \"#utility.yul\":6929:6932   */\n      dup2\n        /* \"#utility.yul\":6924:6927   */\n      dup4\n        /* \"#utility.yul\":6911:6941   */\n      calldatacopy\n        /* \"#utility.yul\":6975:6976   */\n      0x00\n        /* \"#utility.yul\":6966:6972   */\n      dup4\n        /* \"#utility.yul\":6961:6964   */\n      dup4\n        /* \"#utility.yul\":6957:6973   */\n      add\n        /* \"#utility.yul\":6950:6977   */\n      mstore\n        /* \"#utility.yul\":6837:6983   */\n      pop\n      pop\n      pop\n      jump\t// out\n        /* \"#utility.yul\":6989:7414   */\n    tag_160:\n        /* \"#utility.yul\":7067:7072   */\n      0x00\n        /* \"#utility.yul\":7092:7158   */\n      tag_269\n        /* \"#utility.yul\":7108:7157   */\n      tag_270\n        /* \"#utility.yul\":7150:7156   */\n      dup5\n        /* \"#utility.yul\":7108:7157   */\n      tag_158\n      jump\t// in\n    tag_270:\n        /* \"#utility.yul\":7092:7158   */\n      tag_157\n      jump\t// in\n    tag_269:\n        /* \"#utility.yul\":7083:7158   */\n      swap1\n      pop\n        /* \"#utility.yul\":7181:7187   */\n      dup3\n        /* \"#utility.yul\":7174:7179   */\n      dup2\n        /* \"#utility.yul\":7167:7188   */\n      mstore\n        /* \"#utility.yul\":7219:7223   */\n      0x20\n        /* \"#utility.yul\":7212:7217   */\n      dup2\n        /* \"#utility.yul\":7208:7224   */\n      add\n        /* \"#utility.yul\":7257:7260   */\n      dup5\n        /* \"#utility.yul\":7248:7254   */\n      dup5\n        /* \"#utility.yul\":7243:7246   */\n      dup5\n        /* \"#utility.yul\":7239:7255   */\n      add\n        /* \"#utility.yul\":7236:7261   */\n      gt\n        /* \"#utility.yul\":7233:7345   */\n      iszero\n      tag_271\n      jumpi\n        /* \"#utility.yul\":7264:7343   */\n      tag_272\n      tag_154\n      jump\t// in\n    tag_272:\n        /* \"#utility.yul\":7233:7345   */\n    tag_271:\n        /* \"#utility.yul\":7354:7408   */\n      tag_273\n        /* \"#utility.yul\":7401:7407   */\n      dup5\n        /* \"#utility.yul\":7396:7399   */\n      dup3\n        /* \"#utility.yul\":7391:7394   */\n      dup6\n        /* \"#utility.yul\":7354:7408   */\n      tag_159\n      jump\t// in\n    tag_273:\n        /* \"#utility.yul\":7073:7414   */\n      pop\n        /* \"#utility.yul\":6989:7414   */\n      swap4\n      swap3\n      pop\n      pop\n      pop\n      jump\t// out\n        /* \"#utility.yul\":7434:7774   */\n    tag_161:\n        /* \"#utility.yul\":7490:7495   */\n      0x00\n        /* \"#utility.yul\":7539:7542   */\n      dup3\n        /* \"#utility.yul\":7532:7536   */\n      0x1f\n        /* \"#utility.yul\":7524:7530   */\n      dup4\n        /* \"#utility.yul\":7520:7537   */\n      add\n        /* \"#utility.yul\":7516:7543   */\n      slt\n        /* \"#utility.yul\":7506:7628   */\n      tag_275\n      jumpi\n        /* \"#utility.yul\":7547:7626   */\n      tag_276\n      tag_153\n      jump\t// in\n    tag_276:\n        /* \"#utility.yul\":7506:7628   */\n    tag_275:\n        /* \"#utility.yul\":7664:7670   */\n      dup2\n        /* \"#utility.yul\":7651:7671   */\n      calldataload\n        /* \"#utility.yul\":7689:7768   */\n      tag_277\n        /* \"#utility.yul\":7764:7767   */\n      dup5\n        /* \"#utility.yul\":7756:7762   */\n      dup3\n        /* \"#utility.yul\":7749:7753   */\n      0x20\n        /* \"#utility.yul\":7741:7747   */\n      dup7\n        /* \"#utility.yul\":7737:7754   */\n      add\n        /* \"#utility.yul\":7689:7768   */\n      tag_160\n      jump\t// in\n    tag_277:\n        /* \"#utility.yul\":7680:7768   */\n      swap2\n      pop\n        /* \"#utility.yul\":7496:7774   */\n      pop\n        /* \"#utility.yul\":7434:7774   */\n      swap3\n      swap2\n      pop\n      pop\n      jump\t// out\n        /* \"#utility.yul\":7780:8759   */\n    tag_84:\n        /* \"#utility.yul\":7877:7883   */\n      0x00\n        /* \"#utility.yul\":7885:7891   */\n      dup1\n        /* \"#utility.yul\":7893:7899   */\n      0x00\n        /* \"#utility.yul\":7942:7944   */\n      0x60\n        /* \"#utility.yul\":7930:7939   */\n      dup5\n        /* \"#utility.yul\":7921:7928   */\n      dup7\n        /* \"#utility.yul\":7917:7940   */\n      sub\n        /* \"#utility.yul\":7913:7945   */\n      slt\n        /* \"#utility.yul\":7910:8029   */\n      iszero\n      tag_279\n      jumpi\n        /* \"#utility.yul\":7948:8027   */\n      tag_280\n      tag_136\n      jump\t// in\n    tag_280:\n        /* \"#utility.yul\":7910:8029   */\n    tag_279:\n        /* \"#utility.yul\":8096:8097   */\n      0x00\n        /* \"#utility.yul\":8085:8094   */\n      dup5\n        /* \"#utility.yul\":8081:8098   */\n      add\n        /* \"#utility.yul\":8068:8099   */\n      calldataload\n        /* \"#utility.yul\":8126:8144   */\n      0xffffffffffffffff\n        /* \"#utility.yul\":8118:8124   */\n      dup2\n        /* \"#utility.yul\":8115:8145   */\n      gt\n        /* \"#utility.yul\":8112:8229   */\n      iszero\n      tag_281\n      jumpi\n        /* \"#utility.yul\":8148:8227   */\n      tag_282\n      tag_137\n      jump\t// in\n    tag_282:\n        /* \"#utility.yul\":8112:8229   */\n    tag_281:\n        /* \"#utility.yul\":8253:8316   */\n      tag_283\n        /* \"#utility.yul\":8308:8315   */\n      dup7\n        /* \"#utility.yul\":8299:8305   */\n      dup3\n        /* \"#utility.yul\":8288:8297   */\n      dup8\n        /* \"#utility.yul\":8284:8306   */\n      add\n        /* \"#utility.yul\":8253:8316   */\n      tag_161\n      jump\t// in\n    tag_283:\n        /* \"#utility.yul\":8243:8316   */\n      swap4\n      pop\n        /* \"#utility.yul\":8039:8326   */\n      pop\n        /* \"#utility.yul\":8393:8395   */\n      0x20\n        /* \"#utility.yul\":8382:8391   */\n      dup5\n        /* \"#utility.yul\":8378:8396   */\n      add\n        /* \"#utility.yul\":8365:8397   */\n      calldataload\n        /* \"#utility.yul\":8424:8442   */\n      0xffffffffffffffff\n        /* \"#utility.yul\":8416:8422   */\n      dup2\n        /* \"#utility.yul\":8413:8443   */\n      gt\n        /* \"#utility.yul\":8410:8527   */\n      iszero\n      tag_284\n      jumpi\n        /* \"#utility.yul\":8446:8525   */\n      tag_285\n      tag_137\n      jump\t// in\n    tag_285:\n        /* \"#utility.yul\":8410:8527   */\n    tag_284:\n        /* \"#utility.yul\":8551:8614   */\n      tag_286\n        /* \"#utility.yul\":8606:8613   */\n      dup7\n        /* \"#utility.yul\":8597:8603   */\n      dup3\n        /* \"#utility.yul\":8586:8595   */\n      dup8\n        /* \"#utility.yul\":8582:8604   */\n      add\n        /* \"#utility.yul\":8551:8614   */\n      tag_161\n      jump\t// in\n    tag_286:\n        /* \"#utility.yul\":8541:8614   */\n      swap3\n      pop\n        /* \"#utility.yul\":8336:8624   */\n      pop\n        /* \"#utility.yul\":8663:8665   */\n      0x40\n        /* \"#utility.yul\":8689:8742   */\n      tag_287\n        /* \"#utility.yul\":8734:8741   */\n      dup7\n        /* \"#utility.yul\":8725:8731   */\n      dup3\n        /* \"#utility.yul\":8714:8723   */\n      dup8\n        /* \"#utility.yul\":8710:8732   */\n      add\n        /* \"#utility.yul\":8689:8742   */\n      tag_140\n      jump\t// in\n    tag_287:\n        /* \"#utility.yul\":8679:8742   */\n      swap2\n      pop\n        /* \"#utility.yul\":8634:8752   */\n      pop\n        /* \"#utility.yul\":7780:8759   */\n      swap3\n      pop\n      swap3\n      pop\n      swap3\n      jump\t// out\n        /* \"#utility.yul\":8765:8994   */\n    tag_162:\n        /* \"#utility.yul\":8905:8939   */\n      0x4f6e6c7920736d61727420636f6e7472616374206f776e65722063616e207365\n        /* \"#utility.yul\":8901:8902   */\n      0x00\n        /* \"#utility.yul\":8893:8899   */\n      dup3\n        /* \"#utility.yul\":8889:8903   */\n      add\n        /* \"#utility.yul\":8882:8940   */\n      mstore\n        /* \"#utility.yul\":8974:8986   */\n      0x74207072656d69756d2e00000000000000000000000000000000000000000000\n        /* \"#utility.yul\":8969:8971   */\n      0x20\n        /* \"#utility.yul\":8961:8967   */\n      dup3\n        /* \"#utility.yul\":8957:8972   */\n      add\n        /* \"#utility.yul\":8950:8987   */\n      mstore\n        /* \"#utility.yul\":8765:8994   */\n      pop\n      jump\t// out\n        /* \"#utility.yul\":9000:9366   */\n    tag_163:\n        /* \"#utility.yul\":9142:9145   */\n      0x00\n        /* \"#utility.yul\":9163:9230   */\n      tag_290\n        /* \"#utility.yul\":9227:9229   */\n      0x2a\n        /* \"#utility.yul\":9222:9225   */\n      dup4\n        /* \"#utility.yul\":9163:9230   */\n      tag_145\n      jump\t// in\n    tag_290:\n        /* \"#utility.yul\":9156:9230   */\n      swap2\n      pop\n        /* \"#utility.yul\":9239:9332   */\n      tag_291\n        /* \"#utility.yul\":9328:9331   */\n      dup3\n        /* \"#utility.yul\":9239:9332   */\n      tag_162\n      jump\t// in\n    tag_291:\n        /* \"#utility.yul\":9357:9359   */\n      0x40\n        /* \"#utility.yul\":9352:9355   */\n      dup3\n        /* \"#utility.yul\":9348:9360   */\n      add\n        /* \"#utility.yul\":9341:9360   */\n      swap1\n      pop\n        /* \"#utility.yul\":9000:9366   */\n      swap2\n      swap1\n      pop\n      jump\t// out\n        /* \"#utility.yul\":9372:9791   */\n    tag_93:\n        /* \"#utility.yul\":9538:9542   */\n      0x00\n        /* \"#utility.yul\":9576:9578   */\n      0x20\n        /* \"#utility.yul\":9565:9574   */\n      dup3\n        /* \"#utility.yul\":9561:9579   */\n      add\n        /* \"#utility.yul\":9553:9579   */\n      swap1\n      pop\n        /* \"#utility.yul\":9625:9634   */\n      dup2\n        /* \"#utility.yul\":9619:9623   */\n      dup2\n        /* \"#utility.yul\":9615:9635   */\n      sub\n        /* \"#utility.yul\":9611:9612   */\n      0x00\n        /* \"#utility.yul\":9600:9609   */\n      dup4\n        /* \"#utility.yul\":9596:9613   */\n      add\n        /* \"#utility.yul\":9589:9636   */\n      mstore\n        /* \"#utility.yul\":9653:9784   */\n      tag_293\n        /* \"#utility.yul\":9779:9783   */\n      dup2\n        /* \"#utility.yul\":9653:9784   */\n      tag_163\n      jump\t// in\n    tag_293:\n        /* \"#utility.yul\":9645:9784   */\n      swap1\n      pop\n        /* \"#utility.yul\":9372:9791   */\n      swap2\n      swap1\n      pop\n      jump\t// out\n        /* \"#utility.yul\":9797:9977   */\n    tag_164:\n        /* \"#utility.yul\":9845:9922   */\n      0x4e487b7100000000000000000000000000000000000000000000000000000000\n        /* \"#utility.yul\":9842:9843   */\n      0x00\n        /* \"#utility.yul\":9835:9923   */\n      mstore\n        /* \"#utility.yul\":9942:9946   */\n      0x22\n        /* \"#utility.yul\":9939:9940   */\n      0x04\n        /* \"#utility.yul\":9932:9947   */\n      mstore\n        /* \"#utility.yul\":9966:9970   */\n      0x24\n        /* \"#utility.yul\":9963:9964   */\n      0x00\n        /* \"#utility.yul\":9956:9971   */\n      revert\n        /* \"#utility.yul\":9983:10303   */\n    tag_95:\n        /* \"#utility.yul\":10027:10033   */\n      0x00\n        /* \"#utility.yul\":10064:10065   */\n      0x02\n        /* \"#utility.yul\":10058:10062   */\n      dup3\n        /* \"#utility.yul\":10054:10066   */\n      div\n        /* \"#utility.yul\":10044:10066   */\n      swap1\n      pop\n        /* \"#utility.yul\":10111:10112   */\n      0x01\n        /* \"#utility.yul\":10105:10109   */\n      dup3\n        /* \"#utility.yul\":10101:10113   */\n      and\n        /* \"#utility.yul\":10132:10150   */\n      dup1\n        /* \"#utility.yul\":10122:10203   */\n      tag_296\n      jumpi\n        /* \"#utility.yul\":10188:10192   */\n      0x7f\n        /* \"#utility.yul\":10180:10186   */\n      dup3\n        /* \"#utility.yul\":10176:10193   */\n      and\n        /* \"#utility.yul\":10166:10193   */\n      swap2\n      pop\n        /* \"#utility.yul\":10122:10203   */\n    tag_296:\n        /* \"#utility.yul\":10250:10252   */\n      0x20\n        /* \"#utility.yul\":10242:10248   */\n      dup3\n        /* \"#utility.yul\":10239:10253   */\n      lt\n        /* \"#utility.yul\":10219:10237   */\n      dup2\n        /* \"#utility.yul\":10216:10254   */\n      sub\n        /* \"#utility.yul\":10213:10297   */\n      tag_297\n      jumpi\n        /* \"#utility.yul\":10269:10287   */\n      tag_298\n      tag_164\n      jump\t// in\n    tag_298:\n        /* \"#utility.yul\":10213:10297   */\n    tag_297:\n        /* \"#utility.yul\":10034:10303   */\n      pop\n        /* \"#utility.yul\":9983:10303   */\n      swap2\n      swap1\n      pop\n      jump\t// out\n        /* \"#utility.yul\":10309:10537   */\n    tag_165:\n        /* \"#utility.yul\":10449:10483   */\n      0x4f6e6c7920736d61727420636f6e7472616374206f776e65722063616e207365\n        /* \"#utility.yul\":10445:10446   */\n      0x00\n        /* \"#utility.yul\":10437:10443   */\n      dup3\n        /* \"#utility.yul\":10433:10447   */\n      add\n        /* \"#utility.yul\":10426:10484   */\n      mstore\n        /* \"#utility.yul\":10518:10529   */\n      0x74207061796f75742e0000000000000000000000000000000000000000000000\n        /* \"#utility.yul\":10513:10515   */\n      0x20\n        /* \"#utility.yul\":10505:10511   */\n      dup3\n        /* \"#utility.yul\":10501:10516   */\n      add\n        /* \"#utility.yul\":10494:10530   */\n      mstore\n        /* \"#utility.yul\":10309:10537   */\n      pop\n      jump\t// out\n        /* \"#utility.yul\":10543:10909   */\n    tag_166:\n        /* \"#utility.yul\":10685:10688   */\n      0x00\n        /* \"#utility.yul\":10706:10773   */\n      tag_301\n        /* \"#utility.yul\":10770:10772   */\n      0x29\n        /* \"#utility.yul\":10765:10768   */\n      dup4\n        /* \"#utility.yul\":10706:10773   */\n      tag_145\n      jump\t// in\n    tag_301:\n        /* \"#utility.yul\":10699:10773   */\n      swap2\n      pop\n        /* \"#utility.yul\":10782:10875   */\n      tag_302\n        /* \"#utility.yul\":10871:10874   */\n      dup3\n        /* \"#utility.yul\":10782:10875   */\n      tag_165\n      jump\t// in\n    tag_302:\n        /* \"#utility.yul\":10900:10902   */\n      0x40\n        /* \"#utility.yul\":10895:10898   */\n      dup3\n        /* \"#utility.yul\":10891:10903   */\n      add\n        /* \"#utility.yul\":10884:10903   */\n      swap1\n      pop\n        /* \"#utility.yul\":10543:10909   */\n      swap2\n      swap1\n      pop\n      jump\t// out\n        /* \"#utility.yul\":10915:11334   */\n    tag_108:\n        /* \"#utility.yul\":11081:11085   */\n      0x00\n        /* \"#utility.yul\":11119:11121   */\n      0x20\n        /* \"#utility.yul\":11108:11117   */\n      dup3\n        /* \"#utility.yul\":11104:11122   */\n      add\n        /* \"#utility.yul\":11096:11122   */\n      swap1\n      pop\n        /* \"#utility.yul\":11168:11177   */\n      dup2\n        /* \"#utility.yul\":11162:11166   */\n      dup2\n        /* \"#utility.yul\":11158:11178   */\n      sub\n        /* \"#utility.yul\":11154:11155   */\n      0x00\n        /* \"#utility.yul\":11143:11152   */\n      dup4\n        /* \"#utility.yul\":11139:11156   */\n      add\n        /* \"#utility.yul\":11132:11179   */\n      mstore\n        /* \"#utility.yul\":11196:11327   */\n      tag_304\n        /* \"#utility.yul\":11322:11326   */\n      dup2\n        /* \"#utility.yul\":11196:11327   */\n      tag_166\n      jump\t// in\n    tag_304:\n        /* \"#utility.yul\":11188:11327   */\n      swap1\n      pop\n        /* \"#utility.yul\":10915:11334   */\n      swap2\n      swap1\n      pop\n      jump\t// out\n        /* \"#utility.yul\":11340:11515   */\n    tag_167:\n        /* \"#utility.yul\":11480:11507   */\n      0x496e636f7272656374207072656d69756d20616d6f756e742e00000000000000\n        /* \"#utility.yul\":11476:11477   */\n      0x00\n        /* \"#utility.yul\":11468:11474   */\n      dup3\n        /* \"#utility.yul\":11464:11478   */\n      add\n        /* \"#utility.yul\":11457:11508   */\n      mstore\n        /* \"#utility.yul\":11340:11515   */\n      pop\n      jump\t// out\n        /* \"#utility.yul\":11521:11887   */\n    tag_168:\n        /* \"#utility.yul\":11663:11666   */\n      0x00\n        /* \"#utility.yul\":11684:11751   */\n      tag_307\n        /* \"#utility.yul\":11748:11750   */\n      0x19\n        /* \"#utility.yul\":11743:11746   */\n      dup4\n        /* \"#utility.yul\":11684:11751   */\n      tag_145\n      jump\t// in\n    tag_307:\n        /* \"#utility.yul\":11677:11751   */\n      swap2\n      pop\n        /* \"#utility.yul\":11760:11853   */\n      tag_308\n        /* \"#utility.yul\":11849:11852   */\n      dup3\n        /* \"#utility.yul\":11760:11853   */\n      tag_167\n      jump\t// in\n    tag_308:\n        /* \"#utility.yul\":11878:11880   */\n      0x20\n        /* \"#utility.yul\":11873:11876   */\n      dup3\n        /* \"#utility.yul\":11869:11881   */\n      add\n        /* \"#utility.yul\":11862:11881   */\n      swap1\n      pop\n        /* \"#utility.yul\":11521:11887   */\n      swap2\n      swap1\n      pop\n      jump\t// out\n        /* \"#utility.yul\":11893:12312   */\n    tag_117:\n        /* \"#utility.yul\":12059:12063   */\n      0x00\n        /* \"#utility.yul\":12097:12099   */\n      0x20\n        /* \"#utility.yul\":12086:12095   */\n      dup3\n        /* \"#utility.yul\":12082:12100   */\n      add\n        /* \"#utility.yul\":12074:12100   */\n      swap1\n      pop\n        /* \"#utility.yul\":12146:12155   */\n      dup2\n        /* \"#utility.yul\":12140:12144   */\n      dup2\n        /* \"#utility.yul\":12136:12156   */\n      sub\n        /* \"#utility.yul\":12132:12133   */\n      0x00\n        /* \"#utility.yul\":12121:12130   */\n      dup4\n        /* \"#utility.yul\":12117:12134   */\n      add\n        /* \"#utility.yul\":12110:12157   */\n      mstore\n        /* \"#utility.yul\":12174:12305   */\n      tag_310\n        /* \"#utility.yul\":12300:12304   */\n      dup2\n        /* \"#utility.yul\":12174:12305   */\n      tag_168\n      jump\t// in\n    tag_310:\n        /* \"#utility.yul\":12166:12305   */\n      swap1\n      pop\n        /* \"#utility.yul\":11893:12312   */\n      swap2\n      swap1\n      pop\n      jump\t// out\n        /* \"#utility.yul\":12318:12538   */\n    tag_169:\n        /* \"#utility.yul\":12458:12492   */\n      0x596f757220636c61696d61626c6520616d6f756e7420697320746f6f206c6f77\n        /* \"#utility.yul\":12454:12455   */\n      0x00\n        /* \"#utility.yul\":12446:12452   */\n      dup3\n        /* \"#utility.yul\":12442:12456   */\n      add\n        /* \"#utility.yul\":12435:12493   */\n      mstore\n        /* \"#utility.yul\":12527:12530   */\n      0x2e00000000000000000000000000000000000000000000000000000000000000\n        /* \"#utility.yul\":12522:12524   */\n      0x20\n        /* \"#utility.yul\":12514:12520   */\n      dup3\n        /* \"#utility.yul\":12510:12525   */\n      add\n        /* \"#utility.yul\":12503:12531   */\n      mstore\n        /* \"#utility.yul\":12318:12538   */\n      pop\n      jump\t// out\n        /* \"#utility.yul\":12544:12910   */\n    tag_170:\n        /* \"#utility.yul\":12686:12689   */\n      0x00\n        /* \"#utility.yul\":12707:12774   */\n      tag_313\n        /* \"#utility.yul\":12771:12773   */\n      0x21\n        /* \"#utility.yul\":12766:12769   */\n      dup4\n        /* \"#utility.yul\":12707:12774   */\n      tag_145\n      jump\t// in\n    tag_313:\n        /* \"#utility.yul\":12700:12774   */\n      swap2\n      pop\n        /* \"#utility.yul\":12783:12876   */\n      tag_314\n        /* \"#utility.yul\":12872:12875   */\n      dup3\n        /* \"#utility.yul\":12783:12876   */\n      tag_169\n      jump\t// in\n    tag_314:\n        /* \"#utility.yul\":12901:12903   */\n      0x40\n        /* \"#utility.yul\":12896:12899   */\n      dup3\n        /* \"#utility.yul\":12892:12904   */\n      add\n        /* \"#utility.yul\":12885:12904   */\n      swap1\n      pop\n        /* \"#utility.yul\":12544:12910   */\n      swap2\n      swap1\n      pop\n      jump\t// out\n        /* \"#utility.yul\":12916:13335   */\n    tag_121:\n        /* \"#utility.yul\":13082:13086   */\n      0x00\n        /* \"#utility.yul\":13120:13122   */\n      0x20\n        /* \"#utility.yul\":13109:13118   */\n      dup3\n        /* \"#utility.yul\":13105:13123   */\n      add\n        /* \"#utility.yul\":13097:13123   */\n      swap1\n      pop\n        /* \"#utility.yul\":13169:13178   */\n      dup2\n        /* \"#utility.yul\":13163:13167   */\n      dup2\n        /* \"#utility.yul\":13159:13179   */\n      sub\n        /* \"#utility.yul\":13155:13156   */\n      0x00\n        /* \"#utility.yul\":13144:13153   */\n      dup4\n        /* \"#utility.yul\":13140:13157   */\n      add\n        /* \"#utility.yul\":13133:13180   */\n      mstore\n        /* \"#utility.yul\":13197:13328   */\n      tag_316\n        /* \"#utility.yul\":13323:13327   */\n      dup2\n        /* \"#utility.yul\":13197:13328   */\n      tag_170\n      jump\t// in\n    tag_316:\n        /* \"#utility.yul\":13189:13328   */\n      swap1\n      pop\n        /* \"#utility.yul\":12916:13335   */\n      swap2\n      swap1\n      pop\n      jump\t// out\n        /* \"#utility.yul\":13341:13521   */\n    tag_171:\n        /* \"#utility.yul\":13389:13466   */\n      0x4e487b7100000000000000000000000000000000000000000000000000000000\n        /* \"#utility.yul\":13386:13387   */\n      0x00\n        /* \"#utility.yul\":13379:13467   */\n      mstore\n        /* \"#utility.yul\":13486:13490   */\n      0x11\n        /* \"#utility.yul\":13483:13484   */\n      0x04\n        /* \"#utility.yul\":13476:13491   */\n      mstore\n        /* \"#utility.yul\":13510:13514   */\n      0x24\n        /* \"#utility.yul\":13507:13508   */\n      0x00\n        /* \"#utility.yul\":13500:13515   */\n      revert\n        /* \"#utility.yul\":13527:13721   */\n    tag_127:\n        /* \"#utility.yul\":13567:13571   */\n      0x00\n        /* \"#utility.yul\":13587:13607   */\n      tag_319\n        /* \"#utility.yul\":13605:13606   */\n      dup3\n        /* \"#utility.yul\":13587:13607   */\n      tag_138\n      jump\t// in\n    tag_319:\n        /* \"#utility.yul\":13582:13607   */\n      swap2\n      pop\n        /* \"#utility.yul\":13621:13641   */\n      tag_320\n        /* \"#utility.yul\":13639:13640   */\n      dup4\n        /* \"#utility.yul\":13621:13641   */\n      tag_138\n      jump\t// in\n    tag_320:\n        /* \"#utility.yul\":13616:13641   */\n      swap3\n      pop\n        /* \"#utility.yul\":13665:13666   */\n      dup3\n        /* \"#utility.yul\":13662:13663   */\n      dup3\n        /* \"#utility.yul\":13658:13667   */\n      sub\n        /* \"#utility.yul\":13650:13667   */\n      swap1\n      pop\n        /* \"#utility.yul\":13689:13690   */\n      dup2\n        /* \"#utility.yul\":13683:13687   */\n      dup2\n        /* \"#utility.yul\":13680:13691   */\n      gt\n        /* \"#utility.yul\":13677:13714   */\n      iszero\n      tag_321\n      jumpi\n        /* \"#utility.yul\":13694:13712   */\n      tag_322\n      tag_171\n      jump\t// in\n    tag_322:\n        /* \"#utility.yul\":13677:13714   */\n    tag_321:\n        /* \"#utility.yul\":13527:13721   */\n      swap3\n      swap2\n      pop\n      pop\n      jump\t// out\n        /* \"#utility.yul\":13727:13868   */\n    tag_172:\n        /* \"#utility.yul\":13776:13780   */\n      0x00\n        /* \"#utility.yul\":13799:13802   */\n      dup2\n        /* \"#utility.yul\":13791:13802   */\n      swap1\n      pop\n        /* \"#utility.yul\":13822:13825   */\n      dup2\n        /* \"#utility.yul\":13819:13820   */\n      0x00\n        /* \"#utility.yul\":13812:13826   */\n      mstore\n        /* \"#utility.yul\":13856:13860   */\n      0x20\n        /* \"#utility.yul\":13853:13854   */\n      0x00\n        /* \"#utility.yul\":13843:13861   */\n      keccak256\n        /* \"#utility.yul\":13835:13861   */\n      swap1\n      pop\n        /* \"#utility.yul\":13727:13868   */\n      swap2\n      swap1\n      pop\n      jump\t// out\n        /* \"#utility.yul\":13874:13967   */\n    tag_173:\n        /* \"#utility.yul\":13911:13917   */\n      0x00\n        /* \"#utility.yul\":13958:13960   */\n      0x20\n        /* \"#utility.yul\":13953:13955   */\n      0x1f\n        /* \"#utility.yul\":13946:13951   */\n      dup4\n        /* \"#utility.yul\":13942:13956   */\n      add\n        /* \"#utility.yul\":13938:13961   */\n      div\n        /* \"#utility.yul\":13928:13961   */\n      swap1\n      pop\n        /* \"#utility.yul\":13874:13967   */\n      swap2\n      swap1\n      pop\n      jump\t// out\n        /* \"#utility.yul\":13973:14080   */\n    tag_174:\n        /* \"#utility.yul\":14017:14025   */\n      0x00\n        /* \"#utility.yul\":14067:14072   */\n      dup3\n        /* \"#utility.yul\":14061:14065   */\n      dup3\n        /* \"#utility.yul\":14057:14073   */\n      shl\n        /* \"#utility.yul\":14036:14073   */\n      swap1\n      pop\n        /* \"#utility.yul\":13973:14080   */\n      swap3\n      swap2\n      pop\n      pop\n      jump\t// out\n        /* \"#utility.yul\":14086:14479   */\n    tag_175:\n        /* \"#utility.yul\":14155:14161   */\n      0x00\n        /* \"#utility.yul\":14205:14206   */\n      0x08\n        /* \"#utility.yul\":14193:14203   */\n      dup4\n        /* \"#utility.yul\":14189:14207   */\n      mul\n        /* \"#utility.yul\":14228:14325   */\n      tag_327\n        /* \"#utility.yul\":14258:14324   */\n      0xffffffffffffffffffffffffffffffffffffffffffffffffffffffffffffffff\n        /* \"#utility.yul\":14247:14256   */\n      dup3\n        /* \"#utility.yul\":14228:14325   */\n      tag_174\n      jump\t// in\n    tag_327:\n        /* \"#utility.yul\":14346:14385   */\n      tag_328\n        /* \"#utility.yul\":14376:14384   */\n      dup7\n        /* \"#utility.yul\":14365:14374   */\n      dup4\n        /* \"#utility.yul\":14346:14385   */\n      tag_174\n      jump\t// in\n    tag_328:\n        /* \"#utility.yul\":14334:14385   */\n      swap6\n      pop\n        /* \"#utility.yul\":14418:14422   */\n      dup1\n        /* \"#utility.yul\":14414:14423   */\n      not\n        /* \"#utility.yul\":14407:14412   */\n      dup5\n        /* \"#utility.yul\":14403:14424   */\n      and\n        /* \"#utility.yul\":14394:14424   */\n      swap4\n      pop\n        /* \"#utility.yul\":14467:14471   */\n      dup1\n        /* \"#utility.yul\":14457:14465   */\n      dup7\n        /* \"#utility.yul\":14453:14472   */\n      and\n        /* \"#utility.yul\":14446:14451   */\n      dup5\n        /* \"#utility.yul\":14443:14473   */\n      or\n        /* \"#utility.yul\":14433:14473   */\n      swap3\n      pop\n        /* \"#utility.yul\":14162:14479   */\n      pop\n      pop\n        /* \"#utility.yul\":14086:14479   */\n      swap4\n      swap3\n      pop\n      pop\n      pop\n      jump\t// out\n        /* \"#utility.yul\":14485:14545   */\n    tag_176:\n        /* \"#utility.yul\":14513:14516   */\n      0x00\n        /* \"#utility.yul\":14534:14539   */\n      dup2\n        /* \"#utility.yul\":14527:14539   */\n      swap1\n      pop\n        /* \"#utility.yul\":14485:14545   */\n      swap2\n      swap1\n      pop\n      jump\t// out\n        /* \"#utility.yul\":14551:14693   */\n    tag_177:\n        /* \"#utility.yul\":14601:14610   */\n      0x00\n        /* \"#utility.yul\":14634:14687   */\n      tag_331\n        /* \"#utility.yul\":14652:14686   */\n      tag_332\n        /* \"#utility.yul\":14661:14685   */\n      tag_333\n        /* \"#utility.yul\":14679:14684   */\n      dup5\n        /* \"#utility.yul\":14661:14685   */\n      tag_138\n      jump\t// in\n    tag_333:\n        /* \"#utility.yul\":14652:14686   */\n      tag_176\n      jump\t// in\n    tag_332:\n        /* \"#utility.yul\":14634:14687   */\n      tag_138\n      jump\t// in\n    tag_331:\n        /* \"#utility.yul\":14621:14687   */\n      swap1\n      pop\n        /* \"#utility.yul\":14551:14693   */\n      swap2\n      swap1\n      pop\n      jump\t// out\n        /* \"#utility.yul\":14699:14774   */\n    tag_178:\n        /* \"#utility.yul\":14742:14745   */\n      0x00\n        /* \"#utility.yul\":14763:14768   */\n      dup2\n        /* \"#utility.yul\":14756:14768   */\n      swap1\n      pop\n        /* \"#utility.yul\":14699:14774   */\n      swap2\n      swap1\n      pop\n      jump\t// out\n        /* \"#utility.yul\":14780:15049   */\n    tag_179:\n        /* \"#utility.yul\":14890:14929   */\n      tag_336\n        /* \"#utility.yul\":14921:14928   */\n      dup4\n        /* \"#utility.yul\":14890:14929   */\n      tag_177\n      jump\t// in\n    tag_336:\n        /* \"#utility.yul\":14951:15042   */\n      tag_337\n        /* \"#utility.yul\":15000:15041   */\n      tag_338\n        /* \"#utility.yul\":15024:15040   */\n      dup3\n        /* \"#utility.yul\":15000:15041   */\n      tag_178\n      jump\t// in\n    tag_338:\n        /* \"#utility.yul\":14992:14998   */\n      dup5\n        /* \"#utility.yul\":14985:14989   */\n      dup5\n        /* \"#utility.yul\":14979:14990   */\n      sload\n        /* \"#utility.yul\":14951:15042   */\n      tag_175\n      jump\t// in\n    tag_337:\n        /* \"#utility.yul\":14945:14949   */\n      dup3\n        /* \"#utility.yul\":14938:15043   */\n      sstore\n        /* \"#utility.yul\":14856:15049   */\n      pop\n        /* \"#utility.yul\":14780:15049   */\n      pop\n      pop\n      pop\n      jump\t// out\n        /* \"#utility.yul\":15055:15128   */\n    tag_180:\n        /* \"#utility.yul\":15100:15103   */\n      0x00\n        /* \"#utility.yul\":15055:15128   */\n      swap1\n      jump\t// out\n        /* \"#utility.yul\":15134:15323   */\n    tag_181:\n        /* \"#utility.yul\":15211:15243   */\n      tag_341\n      tag_180\n      jump\t// in\n    tag_341:\n        /* \"#utility.yul\":15252:15317   */\n      tag_342\n        /* \"#utility.yul\":15310:15316   */\n      dup2\n        /* \"#utility.yul\":15302:15308   */\n      dup5\n        /* \"#utility.yul\":15296:15300   */\n      dup5\n        /* \"#utility.yul\":15252:15317   */\n      tag_179\n      jump\t// in\n    tag_342:\n        /* \"#utility.yul\":15187:15323   */\n      pop\n        /* \"#utility.yul\":15134:15323   */\n      pop\n      pop\n      jump\t// out\n        /* \"#utility.yul\":15329:15515   */\n    tag_182:\n        /* \"#utility.yul\":15389:15509   */\n    tag_344:\n        /* \"#utility.yul\":15406:15409   */\n      dup2\n        /* \"#utility.yul\":15399:15404   */\n      dup2\n        /* \"#utility.yul\":15396:15410   */\n      lt\n        /* \"#utility.yul\":15389:15509   */\n      iszero\n      tag_346\n      jumpi\n        /* \"#utility.yul\":15460:15499   */\n      tag_347\n        /* \"#utility.yul\":15497:15498   */\n      0x00\n        /* \"#utility.yul\":15490:15495   */\n      dup3\n        /* \"#utility.yul\":15460:15499   */\n      tag_181\n      jump\t// in\n    tag_347:\n        /* \"#utility.yul\":15433:15434   */\n      0x01\n        /* \"#utility.yul\":15426:15431   */\n      dup2\n        /* \"#utility.yul\":15422:15435   */\n      add\n        /* \"#utility.yul\":15413:15435   */\n      swap1\n      pop\n        /* \"#utility.yul\":15389:15509   */\n      jump(tag_344)\n    tag_346:\n        /* \"#utility.yul\":15329:15515   */\n      pop\n      pop\n      jump\t// out\n        /* \"#utility.yul\":15521:16064   */\n    tag_183:\n        /* \"#utility.yul\":15622:15624   */\n      0x1f\n        /* \"#utility.yul\":15617:15620   */\n      dup3\n        /* \"#utility.yul\":15614:15625   */\n      gt\n        /* \"#utility.yul\":15611:16057   */\n      iszero\n      tag_349\n      jumpi\n        /* \"#utility.yul\":15656:15694   */\n      tag_350\n        /* \"#utility.yul\":15688:15693   */\n      dup2\n        /* \"#utility.yul\":15656:15694   */\n      tag_172\n      jump\t// in\n    tag_350:\n        /* \"#utility.yul\":15740:15769   */\n      tag_351\n        /* \"#utility.yul\":15758:15768   */\n      dup5\n        /* \"#utility.yul\":15740:15769   */\n      tag_173\n      jump\t// in\n    tag_351:\n        /* \"#utility.yul\":15730:15738   */\n      dup2\n        /* \"#utility.yul\":15726:15770   */\n      add\n        /* \"#utility.yul\":15923:15925   */\n      0x20\n        /* \"#utility.yul\":15911:15921   */\n      dup6\n        /* \"#utility.yul\":15908:15926   */\n      lt\n        /* \"#utility.yul\":15905:15954   */\n      iszero\n      tag_352\n      jumpi\n        /* \"#utility.yul\":15944:15952   */\n      dup2\n        /* \"#utility.yul\":15929:15952   */\n      swap1\n      pop\n        /* \"#utility.yul\":15905:15954   */\n    tag_352:\n        /* \"#utility.yul\":15967:16047   */\n      tag_353\n        /* \"#utility.yul\":16023:16045   */\n      tag_354\n        /* \"#utility.yul\":16041:16044   */\n      dup6\n        /* \"#utility.yul\":16023:16045   */\n      tag_173\n      jump\t// in\n    tag_354:\n        /* \"#utility.yul\":16013:16021   */\n      dup4\n        /* \"#utility.yul\":16009:16046   */\n      add\n        /* \"#utility.yul\":15996:16007   */\n      dup3\n        /* \"#utility.yul\":15967:16047   */\n      tag_182\n      jump\t// in\n    tag_353:\n        /* \"#utility.yul\":15626:16057   */\n      pop\n      pop\n        /* \"#utility.yul\":15611:16057   */\n    tag_349:\n        /* \"#utility.yul\":15521:16064   */\n      pop\n      pop\n      pop\n      jump\t// out\n        /* \"#utility.yul\":16070:16187   */\n    tag_184:\n        /* \"#utility.yul\":16124:16132   */\n      0x00\n        /* \"#utility.yul\":16174:16179   */\n      dup3\n        /* \"#utility.yul\":16168:16172   */\n      dup3\n        /* \"#utility.yul\":16164:16180   */\n      shr\n        /* \"#utility.yul\":16143:16180   */\n      swap1\n      pop\n        /* \"#utility.yul\":16070:16187   */\n      swap3\n      swap2\n      pop\n      pop\n      jump\t// out\n        /* \"#utility.yul\":16193:16362   */\n    tag_185:\n        /* \"#utility.yul\":16237:16243   */\n      0x00\n        /* \"#utility.yul\":16270:16321   */\n      tag_357\n        /* \"#utility.yul\":16318:16319   */\n      0x00\n        /* \"#utility.yul\":16314:16320   */\n      not\n        /* \"#utility.yul\":16306:16311   */\n      dup5\n        /* \"#utility.yul\":16303:16304   */\n      0x08\n        /* \"#utility.yul\":16299:16312   */\n      mul\n        /* \"#utility.yul\":16270:16321   */\n      tag_184\n      jump\t// in\n    tag_357:\n        /* \"#utility.yul\":16266:16322   */\n      not\n        /* \"#utility.yul\":16351:16355   */\n      dup1\n        /* \"#utility.yul\":16345:16349   */\n      dup4\n        /* \"#utility.yul\":16341:16356   */\n      and\n        /* \"#utility.yul\":16331:16356   */\n      swap2\n      pop\n        /* \"#utility.yul\":16244:16362   */\n      pop\n        /* \"#utility.yul\":16193:16362   */\n      swap3\n      swap2\n      pop\n      pop\n      jump\t// out\n        /* \"#utility.yul\":16367:16662   */\n    tag_186:\n        /* \"#utility.yul\":16443:16447   */\n      0x00\n        /* \"#utility.yul\":16589:16618   */\n      tag_359\n        /* \"#utility.yul\":16614:16617   */\n      dup4\n        /* \"#utility.yul\":16608:16612   */\n      dup4\n        /* \"#utility.yul\":16589:16618   */\n      tag_185\n      jump\t// in\n    tag_359:\n        /* \"#utility.yul\":16581:16618   */\n      swap2\n      pop\n        /* \"#utility.yul\":16651:16654   */\n      dup3\n        /* \"#utility.yul\":16648:16649   */\n      0x02\n        /* \"#utility.yul\":16644:16655   */\n      mul\n        /* \"#utility.yul\":16638:16642   */\n      dup3\n        /* \"#utility.yul\":16635:16656   */\n      or\n        /* \"#utility.yul\":16627:16656   */\n      swap1\n      pop\n        /* \"#utility.yul\":16367:16662   */\n      swap3\n      swap2\n      pop\n      pop\n      jump\t// out\n        /* \"#utility.yul\":16667:18062   */\n    tag_130:\n        /* \"#utility.yul\":16784:16821   */\n      tag_361\n        /* \"#utility.yul\":16817:16820   */\n      dup3\n        /* \"#utility.yul\":16784:16821   */\n      tag_144\n      jump\t// in\n    tag_361:\n        /* \"#utility.yul\":16886:16904   */\n      0xffffffffffffffff\n        /* \"#utility.yul\":16878:16884   */\n      dup2\n        /* \"#utility.yul\":16875:16905   */\n      gt\n        /* \"#utility.yul\":16872:16928   */\n      iszero\n      tag_362\n      jumpi\n        /* \"#utility.yul\":16908:16926   */\n      tag_363\n      tag_155\n      jump\t// in\n    tag_363:\n        /* \"#utility.yul\":16872:16928   */\n    tag_362:\n        /* \"#utility.yul\":16952:16990   */\n      tag_364\n        /* \"#utility.yul\":16984:16988   */\n      dup3\n        /* \"#utility.yul\":16978:16989   */\n      sload\n        /* \"#utility.yul\":16952:16990   */\n      tag_95\n      jump\t// in\n    tag_364:\n        /* \"#utility.yul\":17037:17104   */\n      tag_365\n        /* \"#utility.yul\":17097:17103   */\n      dup3\n        /* \"#utility.yul\":17089:17095   */\n      dup3\n        /* \"#utility.yul\":17083:17087   */\n      dup6\n        /* \"#utility.yul\":17037:17104   */\n      tag_183\n      jump\t// in\n    tag_365:\n        /* \"#utility.yul\":17131:17132   */\n      0x00\n        /* \"#utility.yul\":17155:17159   */\n      0x20\n        /* \"#utility.yul\":17142:17159   */\n      swap1\n      pop\n        /* \"#utility.yul\":17187:17189   */\n      0x1f\n        /* \"#utility.yul\":17179:17185   */\n      dup4\n        /* \"#utility.yul\":17176:17190   */\n      gt\n        /* \"#utility.yul\":17204:17205   */\n      0x01\n        /* \"#utility.yul\":17199:17817   */\n      dup2\n      eq\n      tag_367\n      jumpi\n        /* \"#utility.yul\":17861:17862   */\n      0x00\n        /* \"#utility.yul\":17878:17884   */\n      dup5\n        /* \"#utility.yul\":17875:17952   */\n      iszero\n      tag_368\n      jumpi\n        /* \"#utility.yul\":17927:17936   */\n      dup3\n        /* \"#utility.yul\":17922:17925   */\n      dup8\n        /* \"#utility.yul\":17918:17937   */\n      add\n        /* \"#utility.yul\":17912:17938   */\n      mload\n        /* \"#utility.yul\":17903:17938   */\n      swap1\n      pop\n        /* \"#utility.yul\":17875:17952   */\n    tag_368:\n        /* \"#utility.yul\":17978:18045   */\n      tag_369\n        /* \"#utility.yul\":18038:18044   */\n      dup6\n        /* \"#utility.yul\":18031:18036   */\n      dup3\n        /* \"#utility.yul\":17978:18045   */\n      tag_186\n      jump\t// in\n    tag_369:\n        /* \"#utility.yul\":17972:17976   */\n      dup7\n        /* \"#utility.yul\":17965:18046   */\n      sstore\n        /* \"#utility.yul\":17834:18056   */\n      pop\n        /* \"#utility.yul\":17169:18056   */\n      jump(tag_366)\n        /* \"#utility.yul\":17199:17817   */\n    tag_367:\n        /* \"#utility.yul\":17251:17255   */\n      0x1f\n        /* \"#utility.yul\":17247:17256   */\n      not\n        /* \"#utility.yul\":17239:17245   */\n      dup5\n        /* \"#utility.yul\":17235:17257   */\n      and\n        /* \"#utility.yul\":17285:17322   */\n      tag_370\n        /* \"#utility.yul\":17317:17321   */\n      dup7\n        /* \"#utility.yul\":17285:17322   */\n      tag_172\n      jump\t// in\n    tag_370:\n        /* \"#utility.yul\":17344:17345   */\n      0x00\n        /* \"#utility.yul\":17358:17566   */\n    tag_371:\n        /* \"#utility.yul\":17372:17379   */\n      dup3\n        /* \"#utility.yul\":17369:17370   */\n      dup2\n        /* \"#utility.yul\":17366:17380   */\n      lt\n        /* \"#utility.yul\":17358:17566   */\n      iszero\n      tag_373\n      jumpi\n        /* \"#utility.yul\":17451:17460   */\n      dup5\n        /* \"#utility.yul\":17446:17449   */\n      dup10\n        /* \"#utility.yul\":17442:17461   */\n      add\n        /* \"#utility.yul\":17436:17462   */\n      mload\n        /* \"#utility.yul\":17428:17434   */\n      dup3\n        /* \"#utility.yul\":17421:17463   */\n      sstore\n        /* \"#utility.yul\":17502:17503   */\n      0x01\n        /* \"#utility.yul\":17494:17500   */\n      dup3\n        /* \"#utility.yul\":17490:17504   */\n      add\n        /* \"#utility.yul\":17480:17504   */\n      swap2\n      pop\n        /* \"#utility.yul\":17549:17551   */\n      0x20\n        /* \"#utility.yul\":17538:17547   */\n      dup6\n        /* \"#utility.yul\":17534:17552   */\n      add\n        /* \"#utility.yul\":17521:17552   */\n      swap5\n      pop\n        /* \"#utility.yul\":17395:17399   */\n      0x20\n        /* \"#utility.yul\":17392:17393   */\n      dup2\n        /* \"#utility.yul\":17388:17400   */\n      add\n        /* \"#utility.yul\":17383:17400   */\n      swap1\n      pop\n        /* \"#utility.yul\":17358:17566   */\n      jump(tag_371)\n    tag_373:\n        /* \"#utility.yul\":17594:17600   */\n      dup7\n        /* \"#utility.yul\":17585:17592   */\n      dup4\n        /* \"#utility.yul\":17582:17601   */\n      lt\n        /* \"#utility.yul\":17579:17758   */\n      iszero\n      tag_374\n      jumpi\n        /* \"#utility.yul\":17652:17661   */\n      dup5\n        /* \"#utility.yul\":17647:17650   */\n      dup10\n        /* \"#utility.yul\":17643:17662   */\n      add\n        /* \"#utility.yul\":17637:17663   */\n      mload\n        /* \"#utility.yul\":17695:17743   */\n      tag_375\n        /* \"#utility.yul\":17737:17741   */\n      0x1f\n        /* \"#utility.yul\":17729:17735   */\n      dup10\n        /* \"#utility.yul\":17725:17742   */\n      and\n        /* \"#utility.yul\":17714:17723   */\n      dup3\n        /* \"#utility.yul\":17695:17743   */\n      tag_185\n      jump\t// in\n    tag_375:\n        /* \"#utility.yul\":17687:17693   */\n      dup4\n        /* \"#utility.yul\":17680:17744   */\n      sstore\n        /* \"#utility.yul\":17602:17758   */\n      pop\n        /* \"#utility.yul\":17579:17758   */\n    tag_374:\n        /* \"#utility.yul\":17804:17805   */\n      0x01\n        /* \"#utility.yul\":17800:17801   */\n      0x02\n        /* \"#utility.yul\":17792:17798   */\n      dup9\n        /* \"#utility.yul\":17788:17802   */\n      mul\n        /* \"#utility.yul\":17784:17806   */\n      add\n        /* \"#utility.yul\":17778:17782   */\n      dup9\n        /* \"#utility.yul\":17771:17807   */\n      sstore\n        /* \"#utility.yul\":17206:17817   */\n      pop\n      pop\n      pop\n        /* \"#utility.yul\":17169:18056   */\n    tag_366:\n      pop\n        /* \"#utility.yul\":16759:18062   */\n      pop\n      pop\n      pop\n        /* \"#utility.yul\":16667:18062   */\n      pop\n      pop\n      jump\t// out\n\n    auxdata: 0xa26469706673582212201fcbadfaddca66cedb7eaa5bd6cbe4c14626b1368924f171c053b0a61985a4ea64736f6c63430008110033\n}\n",
				"bytecode": {
					"linkReferences": {},
					"object": "60806040523480156200001157600080fd5b5060405162001633380380620016338339818101604052810190620000379190620001b8565b83600081905550826001819055508160028190555080600460006101000a81548173ffffffffffffffffffffffffffffffffffffffff021916908373ffffffffffffffffffffffffffffffffffffffff16021790555033600560006101000a81548173ffffffffffffffffffffffffffffffffffffffff021916908373ffffffffffffffffffffffffffffffffffffffff160217905550505050506200022a565b600080fd5b6000819050919050565b620000f281620000dd565b8114620000fe57600080fd5b50565b6000815190506200011281620000e7565b92915050565b6000819050919050565b6200012d8162000118565b81146200013957600080fd5b50565b6000815190506200014d8162000122565b92915050565b600073ffffffffffffffffffffffffffffffffffffffff82169050919050565b6000620001808262000153565b9050919050565b620001928162000173565b81146200019e57600080fd5b50565b600081519050620001b28162000187565b92915050565b60008060008060808587031215620001d557620001d4620000d8565b5b6000620001e58782880162000101565b9450506020620001f88782880162000101565b93505060406200020b878288016200013c565b92505060606200021e87828801620001a1565b91505092959194509250565b6113f9806200023a6000396000f3fe6080604052600436106100e85760003560e01c806369e52fbb1161008a578063c349026311610059578063c3490263146102da578063e0a73a9314610303578063e8a605581461032e578063f96cfb8414610357576100e8565b806369e52fbb1461022b57806371618c79146102685780637dc0d1d01461027257806388a74cca1461029d576100e8565b806321b0c103116100c657806321b0c1031461017e5780632986c0e5146101ac57806344c18aa7146101d757806363bd1d4a14610200576100e8565b806302d05d3f146100ed57806310ec214f14610118578063169b6f0914610141575b600080fd5b3480156100f957600080fd5b50610102610382565b60405161010f91906109fe565b60405180910390f35b34801561012457600080fd5b5061013f600480360381019061013a9190610a63565b6103a8565b005b34801561014d57600080fd5b5061016860048036038101906101639190610abc565b610442565b6040516101759190610af8565b60405180910390f35b34801561018a57600080fd5b5061019361045a565b6040516101a39493929190610ba3565b60405180910390f35b3480156101b857600080fd5b506101c16105a8565b6040516101ce9190610c0f565b60405180910390f35b3480156101e357600080fd5b506101fe60048036038101906101f99190610a63565b6105ae565b005b34801561020c57600080fd5b50610215610648565b6040516102229190610af8565b60405180910390f35b34801561023757600080fd5b50610252600480360381019061024d9190610a63565b61064e565b60405161025f9190610c45565b60405180910390f35b6102706106ac565b005b34801561027e57600080fd5b50610287610738565b60405161029491906109fe565b60405180910390f35b3480156102a957600080fd5b506102c460048036038101906102bf9190610abc565b61075e565b6040516102d19190610af8565b60405180910390f35b3480156102e657600080fd5b5061030160048036038101906102fc9190610c60565b610776565b005b34801561030f57600080fd5b506103186108ae565b6040516103259190610af8565b60405180910390f35b34801561033a57600080fd5b5061035560048036038101906103509190610dd5565b6108b4565b005b34801561036357600080fd5b5061036c6109b7565b6040516103799190610c0f565b60405180910390f35b600560009054906101000a900473ffffffffffffffffffffffffffffffffffffffff1681565b600560009054906101000a900473ffffffffffffffffffffffffffffffffffffffff1673ffffffffffffffffffffffffffffffffffffffff163373ffffffffffffffffffffffffffffffffffffffff1614610438576040517f08c379a000000000000000000000000000000000000000000000000000000000815260040161042f90610ed2565b60405180910390fd5b8060008190555050565b600b6020528060005260406000206000915090505481565b600680600001805461046b90610f21565b80601f016020809104026020016040519081016040528092919081815260200182805461049790610f21565b80156104e45780601f106104b9576101008083540402835291602001916104e4565b820191906000526020600020905b8154815290600101906020018083116104c757829003601f168201915b5050505050908060010180546104f990610f21565b80601f016020809104026020016040519081016040528092919081815260200182805461052590610f21565b80156105725780601f1061054757610100808354040283529160200191610572565b820191906000526020600020905b81548152906001019060200180831161055557829003601f168201915b5050505050908060020154908060030160009054906101000a900473ffffffffffffffffffffffffffffffffffffffff16905084565b60035481565b600560009054906101000a900473ffffffffffffffffffffffffffffffffffffffff1673ffffffffffffffffffffffffffffffffffffffff163373ffffffffffffffffffffffffffffffffffffffff161461063e576040517f08c379a000000000000000000000000000000000000000000000000000000000815260040161063590610fc4565b60405180910390fd5b8060018190555050565b60015481565b600060018203610684577fffffffffffffffffffffffffffffffffffffffffffffffffffffffffffffffff60038190555061068d565b60016003819055505b60025460035412156106a257600190506106a7565b600090505b919050565b60005434146106f0576040517f08c379a00000000000000000000000000000000000000000000000000000000081526004016106e790611030565b60405180910390fd5b600154600a60003373ffffffffffffffffffffffffffffffffffffffff1673ffffffffffffffffffffffffffffffffffffffff16815260200190815260200160002081905550565b600460009054906101000a900473ffffffffffffffffffffffffffffffffffffffff1681565b600a6020528060005260406000206000915090505481565b81600a60003373ffffffffffffffffffffffffffffffffffffffff1673ffffffffffffffffffffffffffffffffffffffff1681526020019081526020016000205410156107f8576040517f08c379a00000000000000000000000000000000000000000000000000000000081526004016107ef906110c2565b60405180910390fd5b60006108038261064e565b905080156108a9573373ffffffffffffffffffffffffffffffffffffffff166108fc849081150290604051600060405180830381858888f19350505050158015610851573d6000803e3d6000fd5b5082600a60003373ffffffffffffffffffffffffffffffffffffffff1673ffffffffffffffffffffffffffffffffffffffff16815260200190815260200160002060008282546108a19190611111565b925050819055505b505050565b60005481565b60405180608001604052808481526020018381526020018281526020013373ffffffffffffffffffffffffffffffffffffffff168152506006600082015181600001908161090291906112f1565b50602082015181600101908161091891906112f1565b506040820151816002015560608201518160030160006101000a81548173ffffffffffffffffffffffffffffffffffffffff021916908373ffffffffffffffffffffffffffffffffffffffff1602179055509050506000600a60003373ffffffffffffffffffffffffffffffffffffffff1673ffffffffffffffffffffffffffffffffffffffff16815260200190815260200160002081905550505050565b60025481565b600073ffffffffffffffffffffffffffffffffffffffff82169050919050565b60006109e8826109bd565b9050919050565b6109f8816109dd565b82525050565b6000602082019050610a1360008301846109ef565b92915050565b6000604051905090565b600080fd5b600080fd5b6000819050919050565b610a4081610a2d565b8114610a4b57600080fd5b50565b600081359050610a5d81610a37565b92915050565b600060208284031215610a7957610a78610a23565b5b6000610a8784828501610a4e565b91505092915050565b610a99816109dd565b8114610aa457600080fd5b50565b600081359050610ab681610a90565b92915050565b600060208284031215610ad257610ad1610a23565b5b6000610ae084828501610aa7565b91505092915050565b610af281610a2d565b82525050565b6000602082019050610b0d6000830184610ae9565b92915050565b600081519050919050565b600082825260208201905092915050565b60005b83811015610b4d578082015181840152602081019050610b32565b60008484015250505050565b6000601f19601f8301169050919050565b6000610b7582610b13565b610b7f8185610b1e565b9350610b8f818560208601610b2f565b610b9881610b59565b840191505092915050565b60006080820190508181036000830152610bbd8187610b6a565b90508181036020830152610bd18186610b6a565b9050610be06040830185610ae9565b610bed60608301846109ef565b95945050505050565b6000819050919050565b610c0981610bf6565b82525050565b6000602082019050610c246000830184610c00565b92915050565b60008115159050919050565b610c3f81610c2a565b82525050565b6000602082019050610c5a6000830184610c36565b92915050565b60008060408385031215610c7757610c76610a23565b5b6000610c8585828601610a4e565b9250506020610c9685828601610a4e565b9150509250929050565b600080fd5b600080fd5b7f4e487b7100000000000000000000000000000000000000000000000000000000600052604160045260246000fd5b610ce282610b59565b810181811067ffffffffffffffff82111715610d0157610d00610caa565b5b80604052505050565b6000610d14610a19565b9050610d208282610cd9565b919050565b600067ffffffffffffffff821115610d4057610d3f610caa565b5b610d4982610b59565b9050602081019050919050565b82818337600083830152505050565b6000610d78610d7384610d25565b610d0a565b905082815260208101848484011115610d9457610d93610ca5565b5b610d9f848285610d56565b509392505050565b600082601f830112610dbc57610dbb610ca0565b5b8135610dcc848260208601610d65565b91505092915050565b600080600060608486031215610dee57610ded610a23565b5b600084013567ffffffffffffffff811115610e0c57610e0b610a28565b5b610e1886828701610da7565b935050602084013567ffffffffffffffff811115610e3957610e38610a28565b5b610e4586828701610da7565b9250506040610e5686828701610a4e565b9150509250925092565b7f4f6e6c7920736d61727420636f6e7472616374206f776e65722063616e20736560008201527f74207072656d69756d2e00000000000000000000000000000000000000000000602082015250565b6000610ebc602a83610b1e565b9150610ec782610e60565b604082019050919050565b60006020820190508181036000830152610eeb81610eaf565b9050919050565b7f4e487b7100000000000000000000000000000000000000000000000000000000600052602260045260246000fd5b60006002820490506001821680610f3957607f821691505b602082108103610f4c57610f4b610ef2565b5b50919050565b7f4f6e6c7920736d61727420636f6e7472616374206f776e65722063616e20736560008201527f74207061796f75742e0000000000000000000000000000000000000000000000602082015250565b6000610fae602983610b1e565b9150610fb982610f52565b604082019050919050565b60006020820190508181036000830152610fdd81610fa1565b9050919050565b7f496e636f7272656374207072656d69756d20616d6f756e742e00000000000000600082015250565b600061101a601983610b1e565b915061102582610fe4565b602082019050919050565b600060208201905081810360008301526110498161100d565b9050919050565b7f596f757220636c61696d61626c6520616d6f756e7420697320746f6f206c6f7760008201527f2e00000000000000000000000000000000000000000000000000000000000000602082015250565b60006110ac602183610b1e565b91506110b782611050565b604082019050919050565b600060208201905081810360008301526110db8161109f565b9050919050565b7f4e487b7100000000000000000000000000000000000000000000000000000000600052601160045260246000fd5b600061111c82610a2d565b915061112783610a2d565b925082820390508181111561113f5761113e6110e2565b5b92915050565b60008190508160005260206000209050919050565b60006020601f8301049050919050565b600082821b905092915050565b6000600883026111a77fffffffffffffffffffffffffffffffffffffffffffffffffffffffffffffffff8261116a565b6111b1868361116a565b95508019841693508086168417925050509392505050565b6000819050919050565b60006111ee6111e96111e484610a2d565b6111c9565b610a2d565b9050919050565b6000819050919050565b611208836111d3565b61121c611214826111f5565b848454611177565b825550505050565b600090565b611231611224565b61123c8184846111ff565b505050565b5b8181101561126057611255600082611229565b600181019050611242565b5050565b601f8211156112a55761127681611145565b61127f8461115a565b8101602085101561128e578190505b6112a261129a8561115a565b830182611241565b50505b505050565b600082821c905092915050565b60006112c8600019846008026112aa565b1980831691505092915050565b60006112e183836112b7565b9150826002028217905092915050565b6112fa82610b13565b67ffffffffffffffff81111561131357611312610caa565b5b61131d8254610f21565b611328828285611264565b600060209050601f83116001811461135b5760008415611349578287015190505b61135385826112d5565b8655506113bb565b601f19841661136986611145565b60005b828110156113915784890151825560018201915060208501945060208101905061136c565b868310156113ae57848901516113aa601f8916826112b7565b8355505b6001600288020188555050505b50505050505056fea26469706673582212201fcbadfaddca66cedb7eaa5bd6cbe4c14626b1368924f171c053b0a61985a4ea64736f6c63430008110033",
					"opcodes": "PUSH1 0x80 PUSH1 0x40 MSTORE CALLVALUE DUP1 ISZERO PUSH3 0x11 JUMPI PUSH1 0x0 DUP1 REVERT JUMPDEST POP PUSH1 0x40 MLOAD PUSH3 0x1633 CODESIZE SUB DUP1 PUSH3 0x1633 DUP4 CODECOPY DUP2 DUP2 ADD PUSH1 0x40 MSTORE DUP2 ADD SWAP1 PUSH3 0x37 SWAP2 SWAP1 PUSH3 0x1B8 JUMP JUMPDEST DUP4 PUSH1 0x0 DUP2 SWAP1 SSTORE POP DUP3 PUSH1 0x1 DUP2 SWAP1 SSTORE POP DUP2 PUSH1 0x2 DUP2 SWAP1 SSTORE POP DUP1 PUSH1 0x4 PUSH1 0x0 PUSH2 0x100 EXP DUP2 SLOAD DUP2 PUSH20 0xFFFFFFFFFFFFFFFFFFFFFFFFFFFFFFFFFFFFFFFF MUL NOT AND SWAP1 DUP4 PUSH20 0xFFFFFFFFFFFFFFFFFFFFFFFFFFFFFFFFFFFFFFFF AND MUL OR SWAP1 SSTORE POP CALLER PUSH1 0x5 PUSH1 0x0 PUSH2 0x100 EXP DUP2 SLOAD DUP2 PUSH20 0xFFFFFFFFFFFFFFFFFFFFFFFFFFFFFFFFFFFFFFFF MUL NOT AND SWAP1 DUP4 PUSH20 0xFFFFFFFFFFFFFFFFFFFFFFFFFFFFFFFFFFFFFFFF AND MUL OR SWAP1 SSTORE POP POP POP POP POP PUSH3 0x22A JUMP JUMPDEST PUSH1 0x0 DUP1 REVERT JUMPDEST PUSH1 0x0 DUP2 SWAP1 POP SWAP2 SWAP1 POP JUMP JUMPDEST PUSH3 0xF2 DUP2 PUSH3 0xDD JUMP JUMPDEST DUP2 EQ PUSH3 0xFE JUMPI PUSH1 0x0 DUP1 REVERT JUMPDEST POP JUMP JUMPDEST PUSH1 0x0 DUP2 MLOAD SWAP1 POP PUSH3 0x112 DUP2 PUSH3 0xE7 JUMP JUMPDEST SWAP3 SWAP2 POP POP JUMP JUMPDEST PUSH1 0x0 DUP2 SWAP1 POP SWAP2 SWAP1 POP JUMP JUMPDEST PUSH3 0x12D DUP2 PUSH3 0x118 JUMP JUMPDEST DUP2 EQ PUSH3 0x139 JUMPI PUSH1 0x0 DUP1 REVERT JUMPDEST POP JUMP JUMPDEST PUSH1 0x0 DUP2 MLOAD SWAP1 POP PUSH3 0x14D DUP2 PUSH3 0x122 JUMP JUMPDEST SWAP3 SWAP2 POP POP JUMP JUMPDEST PUSH1 0x0 PUSH20 0xFFFFFFFFFFFFFFFFFFFFFFFFFFFFFFFFFFFFFFFF DUP3 AND SWAP1 POP SWAP2 SWAP1 POP JUMP JUMPDEST PUSH1 0x0 PUSH3 0x180 DUP3 PUSH3 0x153 JUMP JUMPDEST SWAP1 POP SWAP2 SWAP1 POP JUMP JUMPDEST PUSH3 0x192 DUP2 PUSH3 0x173 JUMP JUMPDEST DUP2 EQ PUSH3 0x19E JUMPI PUSH1 0x0 DUP1 REVERT JUMPDEST POP JUMP JUMPDEST PUSH1 0x0 DUP2 MLOAD SWAP1 POP PUSH3 0x1B2 DUP2 PUSH3 0x187 JUMP JUMPDEST SWAP3 SWAP2 POP POP JUMP JUMPDEST PUSH1 0x0 DUP1 PUSH1 0x0 DUP1 PUSH1 0x80 DUP6 DUP8 SUB SLT ISZERO PUSH3 0x1D5 JUMPI PUSH3 0x1D4 PUSH3 0xD8 JUMP JUMPDEST JUMPDEST PUSH1 0x0 PUSH3 0x1E5 DUP8 DUP3 DUP9 ADD PUSH3 0x101 JUMP JUMPDEST SWAP5 POP POP PUSH1 0x20 PUSH3 0x1F8 DUP8 DUP3 DUP9 ADD PUSH3 0x101 JUMP JUMPDEST SWAP4 POP POP PUSH1 0x40 PUSH3 0x20B DUP8 DUP3 DUP9 ADD PUSH3 0x13C JUMP JUMPDEST SWAP3 POP POP PUSH1 0x60 PUSH3 0x21E DUP8 DUP3 DUP9 ADD PUSH3 0x1A1 JUMP JUMPDEST SWAP2 POP POP SWAP3 SWAP6 SWAP2 SWAP5 POP SWAP3 POP JUMP JUMPDEST PUSH2 0x13F9 DUP1 PUSH3 0x23A PUSH1 0x0 CODECOPY PUSH1 0x0 RETURN INVALID PUSH1 0x80 PUSH1 0x40 MSTORE PUSH1 0x4 CALLDATASIZE LT PUSH2 0xE8 JUMPI PUSH1 0x0 CALLDATALOAD PUSH1 0xE0 SHR DUP1 PUSH4 0x69E52FBB GT PUSH2 0x8A JUMPI DUP1 PUSH4 0xC3490263 GT PUSH2 0x59 JUMPI DUP1 PUSH4 0xC3490263 EQ PUSH2 0x2DA JUMPI DUP1 PUSH4 0xE0A73A93 EQ PUSH2 0x303 JUMPI DUP1 PUSH4 0xE8A60558 EQ PUSH2 0x32E JUMPI DUP1 PUSH4 0xF96CFB84 EQ PUSH2 0x357 JUMPI PUSH2 0xE8 JUMP JUMPDEST DUP1 PUSH4 0x69E52FBB EQ PUSH2 0x22B JUMPI DUP1 PUSH4 0x71618C79 EQ PUSH2 0x268 JUMPI DUP1 PUSH4 0x7DC0D1D0 EQ PUSH2 0x272 JUMPI DUP1 PUSH4 0x88A74CCA EQ PUSH2 0x29D JUMPI PUSH2 0xE8 JUMP JUMPDEST DUP1 PUSH4 0x21B0C103 GT PUSH2 0xC6 JUMPI DUP1 PUSH4 0x21B0C103 EQ PUSH2 0x17E JUMPI DUP1 PUSH4 0x2986C0E5 EQ PUSH2 0x1AC JUMPI DUP1 PUSH4 0x44C18AA7 EQ PUSH2 0x1D7 JUMPI DUP1 PUSH4 0x63BD1D4A EQ PUSH2 0x200 JUMPI PUSH2 0xE8 JUMP JUMPDEST DUP1 PUSH4 0x2D05D3F EQ PUSH2 0xED JUMPI DUP1 PUSH4 0x10EC214F EQ PUSH2 0x118 JUMPI DUP1 PUSH4 0x169B6F09 EQ PUSH2 0x141 JUMPI JUMPDEST PUSH1 0x0 DUP1 REVERT JUMPDEST CALLVALUE DUP1 ISZERO PUSH2 0xF9 JUMPI PUSH1 0x0 DUP1 REVERT JUMPDEST POP PUSH2 0x102 PUSH2 0x382 JUMP JUMPDEST PUSH1 0x40 MLOAD PUSH2 0x10F SWAP2 SWAP1 PUSH2 0x9FE JUMP JUMPDEST PUSH1 0x40 MLOAD DUP1 SWAP2 SUB SWAP1 RETURN JUMPDEST CALLVALUE DUP1 ISZERO PUSH2 0x124 JUMPI PUSH1 0x0 DUP1 REVERT JUMPDEST POP PUSH2 0x13F PUSH1 0x4 DUP1 CALLDATASIZE SUB DUP2 ADD SWAP1 PUSH2 0x13A SWAP2 SWAP1 PUSH2 0xA63 JUMP JUMPDEST PUSH2 0x3A8 JUMP JUMPDEST STOP JUMPDEST CALLVALUE DUP1 ISZERO PUSH2 0x14D JUMPI PUSH1 0x0 DUP1 REVERT JUMPDEST POP PUSH2 0x168 PUSH1 0x4 DUP1 CALLDATASIZE SUB DUP2 ADD SWAP1 PUSH2 0x163 SWAP2 SWAP1 PUSH2 0xABC JUMP JUMPDEST PUSH2 0x442 JUMP JUMPDEST PUSH1 0x40 MLOAD PUSH2 0x175 SWAP2 SWAP1 PUSH2 0xAF8 JUMP JUMPDEST PUSH1 0x40 MLOAD DUP1 SWAP2 SUB SWAP1 RETURN JUMPDEST CALLVALUE DUP1 ISZERO PUSH2 0x18A JUMPI PUSH1 0x0 DUP1 REVERT JUMPDEST POP PUSH2 0x193 PUSH2 0x45A JUMP JUMPDEST PUSH1 0x40 MLOAD PUSH2 0x1A3 SWAP5 SWAP4 SWAP3 SWAP2 SWAP1 PUSH2 0xBA3 JUMP JUMPDEST PUSH1 0x40 MLOAD DUP1 SWAP2 SUB SWAP1 RETURN JUMPDEST CALLVALUE DUP1 ISZERO PUSH2 0x1B8 JUMPI PUSH1 0x0 DUP1 REVERT JUMPDEST POP PUSH2 0x1C1 PUSH2 0x5A8 JUMP JUMPDEST PUSH1 0x40 MLOAD PUSH2 0x1CE SWAP2 SWAP1 PUSH2 0xC0F JUMP JUMPDEST PUSH1 0x40 MLOAD DUP1 SWAP2 SUB SWAP1 RETURN JUMPDEST CALLVALUE DUP1 ISZERO PUSH2 0x1E3 JUMPI PUSH1 0x0 DUP1 REVERT JUMPDEST POP PUSH2 0x1FE PUSH1 0x4 DUP1 CALLDATASIZE SUB DUP2 ADD SWAP1 PUSH2 0x1F9 SWAP2 SWAP1 PUSH2 0xA63 JUMP JUMPDEST PUSH2 0x5AE JUMP JUMPDEST STOP JUMPDEST CALLVALUE DUP1 ISZERO PUSH2 0x20C JUMPI PUSH1 0x0 DUP1 REVERT JUMPDEST POP PUSH2 0x215 PUSH2 0x648 JUMP JUMPDEST PUSH1 0x40 MLOAD PUSH2 0x222 SWAP2 SWAP1 PUSH2 0xAF8 JUMP JUMPDEST PUSH1 0x40 MLOAD DUP1 SWAP2 SUB SWAP1 RETURN JUMPDEST CALLVALUE DUP1 ISZERO PUSH2 0x237 JUMPI PUSH1 0x0 DUP1 REVERT JUMPDEST POP PUSH2 0x252 PUSH1 0x4 DUP1 CALLDATASIZE SUB DUP2 ADD SWAP1 PUSH2 0x24D SWAP2 SWAP1 PUSH2 0xA63 JUMP JUMPDEST PUSH2 0x64E JUMP JUMPDEST PUSH1 0x40 MLOAD PUSH2 0x25F SWAP2 SWAP1 PUSH2 0xC45 JUMP JUMPDEST PUSH1 0x40 MLOAD DUP1 SWAP2 SUB SWAP1 RETURN JUMPDEST PUSH2 0x270 PUSH2 0x6AC JUMP JUMPDEST STOP JUMPDEST CALLVALUE DUP1 ISZERO PUSH2 0x27E JUMPI PUSH1 0x0 DUP1 REVERT JUMPDEST POP PUSH2 0x287 PUSH2 0x738 JUMP JUMPDEST PUSH1 0x40 MLOAD PUSH2 0x294 SWAP2 SWAP1 PUSH2 0x9FE JUMP JUMPDEST PUSH1 0x40 MLOAD DUP1 SWAP2 SUB SWAP1 RETURN JUMPDEST CALLVALUE DUP1 ISZERO PUSH2 0x2A9 JUMPI PUSH1 0x0 DUP1 REVERT JUMPDEST POP PUSH2 0x2C4 PUSH1 0x4 DUP1 CALLDATASIZE SUB DUP2 ADD SWAP1 PUSH2 0x2BF SWAP2 SWAP1 PUSH2 0xABC JUMP JUMPDEST PUSH2 0x75E JUMP JUMPDEST PUSH1 0x40 MLOAD PUSH2 0x2D1 SWAP2 SWAP1 PUSH2 0xAF8 JUMP JUMPDEST PUSH1 0x40 MLOAD DUP1 SWAP2 SUB SWAP1 RETURN JUMPDEST CALLVALUE DUP1 ISZERO PUSH2 0x2E6 JUMPI PUSH1 0x0 DUP1 REVERT JUMPDEST POP PUSH2 0x301 PUSH1 0x4 DUP1 CALLDATASIZE SUB DUP2 ADD SWAP1 PUSH2 0x2FC SWAP2 SWAP1 PUSH2 0xC60 JUMP JUMPDEST PUSH2 0x776 JUMP JUMPDEST STOP JUMPDEST CALLVALUE DUP1 ISZERO PUSH2 0x30F JUMPI PUSH1 0x0 DUP1 REVERT JUMPDEST POP PUSH2 0x318 PUSH2 0x8AE JUMP JUMPDEST PUSH1 0x40 MLOAD PUSH2 0x325 SWAP2 SWAP1 PUSH2 0xAF8 JUMP JUMPDEST PUSH1 0x40 MLOAD DUP1 SWAP2 SUB SWAP1 RETURN JUMPDEST CALLVALUE DUP1 ISZERO PUSH2 0x33A JUMPI PUSH1 0x0 DUP1 REVERT JUMPDEST POP PUSH2 0x355 PUSH1 0x4 DUP1 CALLDATASIZE SUB DUP2 ADD SWAP1 PUSH2 0x350 SWAP2 SWAP1 PUSH2 0xDD5 JUMP JUMPDEST PUSH2 0x8B4 JUMP JUMPDEST STOP JUMPDEST CALLVALUE DUP1 ISZERO PUSH2 0x363 JUMPI PUSH1 0x0 DUP1 REVERT JUMPDEST POP PUSH2 0x36C PUSH2 0x9B7 JUMP JUMPDEST PUSH1 0x40 MLOAD PUSH2 0x379 SWAP2 SWAP1 PUSH2 0xC0F JUMP JUMPDEST PUSH1 0x40 MLOAD DUP1 SWAP2 SUB SWAP1 RETURN JUMPDEST PUSH1 0x5 PUSH1 0x0 SWAP1 SLOAD SWAP1 PUSH2 0x100 EXP SWAP1 DIV PUSH20 0xFFFFFFFFFFFFFFFFFFFFFFFFFFFFFFFFFFFFFFFF AND DUP2 JUMP JUMPDEST PUSH1 0x5 PUSH1 0x0 SWAP1 SLOAD SWAP1 PUSH2 0x100 EXP SWAP1 DIV PUSH20 0xFFFFFFFFFFFFFFFFFFFFFFFFFFFFFFFFFFFFFFFF AND PUSH20 0xFFFFFFFFFFFFFFFFFFFFFFFFFFFFFFFFFFFFFFFF AND CALLER PUSH20 0xFFFFFFFFFFFFFFFFFFFFFFFFFFFFFFFFFFFFFFFF AND EQ PUSH2 0x438 JUMPI PUSH1 0x40 MLOAD PUSH32 0x8C379A000000000000000000000000000000000000000000000000000000000 DUP2 MSTORE PUSH1 0x4 ADD PUSH2 0x42F SWAP1 PUSH2 0xED2 JUMP JUMPDEST PUSH1 0x40 MLOAD DUP1 SWAP2 SUB SWAP1 REVERT JUMPDEST DUP1 PUSH1 0x0 DUP2 SWAP1 SSTORE POP POP JUMP JUMPDEST PUSH1 0xB PUSH1 0x20 MSTORE DUP1 PUSH1 0x0 MSTORE PUSH1 0x40 PUSH1 0x0 KECCAK256 PUSH1 0x0 SWAP2 POP SWAP1 POP SLOAD DUP2 JUMP JUMPDEST PUSH1 0x6 DUP1 PUSH1 0x0 ADD DUP1 SLOAD PUSH2 0x46B SWAP1 PUSH2 0xF21 JUMP JUMPDEST DUP1 PUSH1 0x1F ADD PUSH1 0x20 DUP1 SWAP2 DIV MUL PUSH1 0x20 ADD PUSH1 0x40 MLOAD SWAP1 DUP2 ADD PUSH1 0x40 MSTORE DUP1 SWAP3 SWAP2 SWAP1 DUP2 DUP2 MSTORE PUSH1 0x20 ADD DUP3 DUP1 SLOAD PUSH2 0x497 SWAP1 PUSH2 0xF21 JUMP JUMPDEST DUP1 ISZERO PUSH2 0x4E4 JUMPI DUP1 PUSH1 0x1F LT PUSH2 0x4B9 JUMPI PUSH2 0x100 DUP1 DUP4 SLOAD DIV MUL DUP4 MSTORE SWAP2 PUSH1 0x20 ADD SWAP2 PUSH2 0x4E4 JUMP JUMPDEST DUP3 ADD SWAP2 SWAP1 PUSH1 0x0 MSTORE PUSH1 0x20 PUSH1 0x0 KECCAK256 SWAP1 JUMPDEST DUP2 SLOAD DUP2 MSTORE SWAP1 PUSH1 0x1 ADD SWAP1 PUSH1 0x20 ADD DUP1 DUP4 GT PUSH2 0x4C7 JUMPI DUP3 SWAP1 SUB PUSH1 0x1F AND DUP3 ADD SWAP2 JUMPDEST POP POP POP POP POP SWAP1 DUP1 PUSH1 0x1 ADD DUP1 SLOAD PUSH2 0x4F9 SWAP1 PUSH2 0xF21 JUMP JUMPDEST DUP1 PUSH1 0x1F ADD PUSH1 0x20 DUP1 SWAP2 DIV MUL PUSH1 0x20 ADD PUSH1 0x40 MLOAD SWAP1 DUP2 ADD PUSH1 0x40 MSTORE DUP1 SWAP3 SWAP2 SWAP1 DUP2 DUP2 MSTORE PUSH1 0x20 ADD DUP3 DUP1 SLOAD PUSH2 0x525 SWAP1 PUSH2 0xF21 JUMP JUMPDEST DUP1 ISZERO PUSH2 0x572 JUMPI DUP1 PUSH1 0x1F LT PUSH2 0x547 JUMPI PUSH2 0x100 DUP1 DUP4 SLOAD DIV MUL DUP4 MSTORE SWAP2 PUSH1 0x20 ADD SWAP2 PUSH2 0x572 JUMP JUMPDEST DUP3 ADD SWAP2 SWAP1 PUSH1 0x0 MSTORE PUSH1 0x20 PUSH1 0x0 KECCAK256 SWAP1 JUMPDEST DUP2 SLOAD DUP2 MSTORE SWAP1 PUSH1 0x1 ADD SWAP1 PUSH1 0x20 ADD DUP1 DUP4 GT PUSH2 0x555 JUMPI DUP3 SWAP1 SUB PUSH1 0x1F AND DUP3 ADD SWAP2 JUMPDEST POP POP POP POP POP SWAP1 DUP1 PUSH1 0x2 ADD SLOAD SWAP1 DUP1 PUSH1 0x3 ADD PUSH1 0x0 SWAP1 SLOAD SWAP1 PUSH2 0x100 EXP SWAP1 DIV PUSH20 0xFFFFFFFFFFFFFFFFFFFFFFFFFFFFFFFFFFFFFFFF AND SWAP1 POP DUP5 JUMP JUMPDEST PUSH1 0x3 SLOAD DUP2 JUMP JUMPDEST PUSH1 0x5 PUSH1 0x0 SWAP1 SLOAD SWAP1 PUSH2 0x100 EXP SWAP1 DIV PUSH20 0xFFFFFFFFFFFFFFFFFFFFFFFFFFFFFFFFFFFFFFFF AND PUSH20 0xFFFFFFFFFFFFFFFFFFFFFFFFFFFFFFFFFFFFFFFF AND CALLER PUSH20 0xFFFFFFFFFFFFFFFFFFFFFFFFFFFFFFFFFFFFFFFF AND EQ PUSH2 0x63E JUMPI PUSH1 0x40 MLOAD PUSH32 0x8C379A000000000000000000000000000000000000000000000000000000000 DUP2 MSTORE PUSH1 0x4 ADD PUSH2 0x635 SWAP1 PUSH2 0xFC4 JUMP JUMPDEST PUSH1 0x40 MLOAD DUP1 SWAP2 SUB SWAP1 REVERT JUMPDEST DUP1 PUSH1 0x1 DUP2 SWAP1 SSTORE POP POP JUMP JUMPDEST PUSH1 0x1 SLOAD DUP2 JUMP JUMPDEST PUSH1 0x0 PUSH1 0x1 DUP3 SUB PUSH2 0x684 JUMPI PUSH32 0xFFFFFFFFFFFFFFFFFFFFFFFFFFFFFFFFFFFFFFFFFFFFFFFFFFFFFFFFFFFFFFFF PUSH1 0x3 DUP2 SWAP1 SSTORE POP PUSH2 0x68D JUMP JUMPDEST PUSH1 0x1 PUSH1 0x3 DUP2 SWAP1 SSTORE POP JUMPDEST PUSH1 0x2 SLOAD PUSH1 0x3 SLOAD SLT ISZERO PUSH2 0x6A2 JUMPI PUSH1 0x1 SWAP1 POP PUSH2 0x6A7 JUMP JUMPDEST PUSH1 0x0 SWAP1 POP JUMPDEST SWAP2 SWAP1 POP JUMP JUMPDEST PUSH1 0x0 SLOAD CALLVALUE EQ PUSH2 0x6F0 JUMPI PUSH1 0x40 MLOAD PUSH32 0x8C379A000000000000000000000000000000000000000000000000000000000 DUP2 MSTORE PUSH1 0x4 ADD PUSH2 0x6E7 SWAP1 PUSH2 0x1030 JUMP JUMPDEST PUSH1 0x40 MLOAD DUP1 SWAP2 SUB SWAP1 REVERT JUMPDEST PUSH1 0x1 SLOAD PUSH1 0xA PUSH1 0x0 CALLER PUSH20 0xFFFFFFFFFFFFFFFFFFFFFFFFFFFFFFFFFFFFFFFF AND PUSH20 0xFFFFFFFFFFFFFFFFFFFFFFFFFFFFFFFFFFFFFFFF AND DUP2 MSTORE PUSH1 0x20 ADD SWAP1 DUP2 MSTORE PUSH1 0x20 ADD PUSH1 0x0 KECCAK256 DUP2 SWAP1 SSTORE POP JUMP JUMPDEST PUSH1 0x4 PUSH1 0x0 SWAP1 SLOAD SWAP1 PUSH2 0x100 EXP SWAP1 DIV PUSH20 0xFFFFFFFFFFFFFFFFFFFFFFFFFFFFFFFFFFFFFFFF AND DUP2 JUMP JUMPDEST PUSH1 0xA PUSH1 0x20 MSTORE DUP1 PUSH1 0x0 MSTORE PUSH1 0x40 PUSH1 0x0 KECCAK256 PUSH1 0x0 SWAP2 POP SWAP1 POP SLOAD DUP2 JUMP JUMPDEST DUP2 PUSH1 0xA PUSH1 0x0 CALLER PUSH20 0xFFFFFFFFFFFFFFFFFFFFFFFFFFFFFFFFFFFFFFFF AND PUSH20 0xFFFFFFFFFFFFFFFFFFFFFFFFFFFFFFFFFFFFFFFF AND DUP2 MSTORE PUSH1 0x20 ADD SWAP1 DUP2 MSTORE PUSH1 0x20 ADD PUSH1 0x0 KECCAK256 SLOAD LT ISZERO PUSH2 0x7F8 JUMPI PUSH1 0x40 MLOAD PUSH32 0x8C379A000000000000000000000000000000000000000000000000000000000 DUP2 MSTORE PUSH1 0x4 ADD PUSH2 0x7EF SWAP1 PUSH2 0x10C2 JUMP JUMPDEST PUSH1 0x40 MLOAD DUP1 SWAP2 SUB SWAP1 REVERT JUMPDEST PUSH1 0x0 PUSH2 0x803 DUP3 PUSH2 0x64E JUMP JUMPDEST SWAP1 POP DUP1 ISZERO PUSH2 0x8A9 JUMPI CALLER PUSH20 0xFFFFFFFFFFFFFFFFFFFFFFFFFFFFFFFFFFFFFFFF AND PUSH2 0x8FC DUP5 SWAP1 DUP2 ISZERO MUL SWAP1 PUSH1 0x40 MLOAD PUSH1 0x0 PUSH1 0x40 MLOAD DUP1 DUP4 SUB DUP2 DUP6 DUP9 DUP9 CALL SWAP4 POP POP POP POP ISZERO DUP1 ISZERO PUSH2 0x851 JUMPI RETURNDATASIZE PUSH1 0x0 DUP1 RETURNDATACOPY RETURNDATASIZE PUSH1 0x0 REVERT JUMPDEST POP DUP3 PUSH1 0xA PUSH1 0x0 CALLER PUSH20 0xFFFFFFFFFFFFFFFFFFFFFFFFFFFFFFFFFFFFFFFF AND PUSH20 0xFFFFFFFFFFFFFFFFFFFFFFFFFFFFFFFFFFFFFFFF AND DUP2 MSTORE PUSH1 0x20 ADD SWAP1 DUP2 MSTORE PUSH1 0x20 ADD PUSH1 0x0 KECCAK256 PUSH1 0x0 DUP3 DUP3 SLOAD PUSH2 0x8A1 SWAP2 SWAP1 PUSH2 0x1111 JUMP JUMPDEST SWAP3 POP POP DUP2 SWAP1 SSTORE POP JUMPDEST POP POP POP JUMP JUMPDEST PUSH1 0x0 SLOAD DUP2 JUMP JUMPDEST PUSH1 0x40 MLOAD DUP1 PUSH1 0x80 ADD PUSH1 0x40 MSTORE DUP1 DUP5 DUP2 MSTORE PUSH1 0x20 ADD DUP4 DUP2 MSTORE PUSH1 0x20 ADD DUP3 DUP2 MSTORE PUSH1 0x20 ADD CALLER PUSH20 0xFFFFFFFFFFFFFFFFFFFFFFFFFFFFFFFFFFFFFFFF AND DUP2 MSTORE POP PUSH1 0x6 PUSH1 0x0 DUP3 ADD MLOAD DUP2 PUSH1 0x0 ADD SWAP1 DUP2 PUSH2 0x902 SWAP2 SWAP1 PUSH2 0x12F1 JUMP JUMPDEST POP PUSH1 0x20 DUP3 ADD MLOAD DUP2 PUSH1 0x1 ADD SWAP1 DUP2 PUSH2 0x918 SWAP2 SWAP1 PUSH2 0x12F1 JUMP JUMPDEST POP PUSH1 0x40 DUP3 ADD MLOAD DUP2 PUSH1 0x2 ADD SSTORE PUSH1 0x60 DUP3 ADD MLOAD DUP2 PUSH1 0x3 ADD PUSH1 0x0 PUSH2 0x100 EXP DUP2 SLOAD DUP2 PUSH20 0xFFFFFFFFFFFFFFFFFFFFFFFFFFFFFFFFFFFFFFFF MUL NOT AND SWAP1 DUP4 PUSH20 0xFFFFFFFFFFFFFFFFFFFFFFFFFFFFFFFFFFFFFFFF AND MUL OR SWAP1 SSTORE POP SWAP1 POP POP PUSH1 0x0 PUSH1 0xA PUSH1 0x0 CALLER PUSH20 0xFFFFFFFFFFFFFFFFFFFFFFFFFFFFFFFFFFFFFFFF AND PUSH20 0xFFFFFFFFFFFFFFFFFFFFFFFFFFFFFFFFFFFFFFFF AND DUP2 MSTORE PUSH1 0x20 ADD SWAP1 DUP2 MSTORE PUSH1 0x20 ADD PUSH1 0x0 KECCAK256 DUP2 SWAP1 SSTORE POP POP POP POP JUMP JUMPDEST PUSH1 0x2 SLOAD DUP2 JUMP JUMPDEST PUSH1 0x0 PUSH20 0xFFFFFFFFFFFFFFFFFFFFFFFFFFFFFFFFFFFFFFFF DUP3 AND SWAP1 POP SWAP2 SWAP1 POP JUMP JUMPDEST PUSH1 0x0 PUSH2 0x9E8 DUP3 PUSH2 0x9BD JUMP JUMPDEST SWAP1 POP SWAP2 SWAP1 POP JUMP JUMPDEST PUSH2 0x9F8 DUP2 PUSH2 0x9DD JUMP JUMPDEST DUP3 MSTORE POP POP JUMP JUMPDEST PUSH1 0x0 PUSH1 0x20 DUP3 ADD SWAP1 POP PUSH2 0xA13 PUSH1 0x0 DUP4 ADD DUP5 PUSH2 0x9EF JUMP JUMPDEST SWAP3 SWAP2 POP POP JUMP JUMPDEST PUSH1 0x0 PUSH1 0x40 MLOAD SWAP1 POP SWAP1 JUMP JUMPDEST PUSH1 0x0 DUP1 REVERT JUMPDEST PUSH1 0x0 DUP1 REVERT JUMPDEST PUSH1 0x0 DUP2 SWAP1 POP SWAP2 SWAP1 POP JUMP JUMPDEST PUSH2 0xA40 DUP2 PUSH2 0xA2D JUMP JUMPDEST DUP2 EQ PUSH2 0xA4B JUMPI PUSH1 0x0 DUP1 REVERT JUMPDEST POP JUMP JUMPDEST PUSH1 0x0 DUP2 CALLDATALOAD SWAP1 POP PUSH2 0xA5D DUP2 PUSH2 0xA37 JUMP JUMPDEST SWAP3 SWAP2 POP POP JUMP JUMPDEST PUSH1 0x0 PUSH1 0x20 DUP3 DUP5 SUB SLT ISZERO PUSH2 0xA79 JUMPI PUSH2 0xA78 PUSH2 0xA23 JUMP JUMPDEST JUMPDEST PUSH1 0x0 PUSH2 0xA87 DUP5 DUP3 DUP6 ADD PUSH2 0xA4E JUMP JUMPDEST SWAP2 POP POP SWAP3 SWAP2 POP POP JUMP JUMPDEST PUSH2 0xA99 DUP2 PUSH2 0x9DD JUMP JUMPDEST DUP2 EQ PUSH2 0xAA4 JUMPI PUSH1 0x0 DUP1 REVERT JUMPDEST POP JUMP JUMPDEST PUSH1 0x0 DUP2 CALLDATALOAD SWAP1 POP PUSH2 0xAB6 DUP2 PUSH2 0xA90 JUMP JUMPDEST SWAP3 SWAP2 POP POP JUMP JUMPDEST PUSH1 0x0 PUSH1 0x20 DUP3 DUP5 SUB SLT ISZERO PUSH2 0xAD2 JUMPI PUSH2 0xAD1 PUSH2 0xA23 JUMP JUMPDEST JUMPDEST PUSH1 0x0 PUSH2 0xAE0 DUP5 DUP3 DUP6 ADD PUSH2 0xAA7 JUMP JUMPDEST SWAP2 POP POP SWAP3 SWAP2 POP POP JUMP JUMPDEST PUSH2 0xAF2 DUP2 PUSH2 0xA2D JUMP JUMPDEST DUP3 MSTORE POP POP JUMP JUMPDEST PUSH1 0x0 PUSH1 0x20 DUP3 ADD SWAP1 POP PUSH2 0xB0D PUSH1 0x0 DUP4 ADD DUP5 PUSH2 0xAE9 JUMP JUMPDEST SWAP3 SWAP2 POP POP JUMP JUMPDEST PUSH1 0x0 DUP2 MLOAD SWAP1 POP SWAP2 SWAP1 POP JUMP JUMPDEST PUSH1 0x0 DUP3 DUP3 MSTORE PUSH1 0x20 DUP3 ADD SWAP1 POP SWAP3 SWAP2 POP POP JUMP JUMPDEST PUSH1 0x0 JUMPDEST DUP4 DUP2 LT ISZERO PUSH2 0xB4D JUMPI DUP1 DUP3 ADD MLOAD DUP2 DUP5 ADD MSTORE PUSH1 0x20 DUP2 ADD SWAP1 POP PUSH2 0xB32 JUMP JUMPDEST PUSH1 0x0 DUP5 DUP5 ADD MSTORE POP POP POP POP JUMP JUMPDEST PUSH1 0x0 PUSH1 0x1F NOT PUSH1 0x1F DUP4 ADD AND SWAP1 POP SWAP2 SWAP1 POP JUMP JUMPDEST PUSH1 0x0 PUSH2 0xB75 DUP3 PUSH2 0xB13 JUMP JUMPDEST PUSH2 0xB7F DUP2 DUP6 PUSH2 0xB1E JUMP JUMPDEST SWAP4 POP PUSH2 0xB8F DUP2 DUP6 PUSH1 0x20 DUP7 ADD PUSH2 0xB2F JUMP JUMPDEST PUSH2 0xB98 DUP2 PUSH2 0xB59 JUMP JUMPDEST DUP5 ADD SWAP2 POP POP SWAP3 SWAP2 POP POP JUMP JUMPDEST PUSH1 0x0 PUSH1 0x80 DUP3 ADD SWAP1 POP DUP2 DUP2 SUB PUSH1 0x0 DUP4 ADD MSTORE PUSH2 0xBBD DUP2 DUP8 PUSH2 0xB6A JUMP JUMPDEST SWAP1 POP DUP2 DUP2 SUB PUSH1 0x20 DUP4 ADD MSTORE PUSH2 0xBD1 DUP2 DUP7 PUSH2 0xB6A JUMP JUMPDEST SWAP1 POP PUSH2 0xBE0 PUSH1 0x40 DUP4 ADD DUP6 PUSH2 0xAE9 JUMP JUMPDEST PUSH2 0xBED PUSH1 0x60 DUP4 ADD DUP5 PUSH2 0x9EF JUMP JUMPDEST SWAP6 SWAP5 POP POP POP POP POP JUMP JUMPDEST PUSH1 0x0 DUP2 SWAP1 POP SWAP2 SWAP1 POP JUMP JUMPDEST PUSH2 0xC09 DUP2 PUSH2 0xBF6 JUMP JUMPDEST DUP3 MSTORE POP POP JUMP JUMPDEST PUSH1 0x0 PUSH1 0x20 DUP3 ADD SWAP1 POP PUSH2 0xC24 PUSH1 0x0 DUP4 ADD DUP5 PUSH2 0xC00 JUMP JUMPDEST SWAP3 SWAP2 POP POP JUMP JUMPDEST PUSH1 0x0 DUP2 ISZERO ISZERO SWAP1 POP SWAP2 SWAP1 POP JUMP JUMPDEST PUSH2 0xC3F DUP2 PUSH2 0xC2A JUMP JUMPDEST DUP3 MSTORE POP POP JUMP JUMPDEST PUSH1 0x0 PUSH1 0x20 DUP3 ADD SWAP1 POP PUSH2 0xC5A PUSH1 0x0 DUP4 ADD DUP5 PUSH2 0xC36 JUMP JUMPDEST SWAP3 SWAP2 POP POP JUMP JUMPDEST PUSH1 0x0 DUP1 PUSH1 0x40 DUP4 DUP6 SUB SLT ISZERO PUSH2 0xC77 JUMPI PUSH2 0xC76 PUSH2 0xA23 JUMP JUMPDEST JUMPDEST PUSH1 0x0 PUSH2 0xC85 DUP6 DUP3 DUP7 ADD PUSH2 0xA4E JUMP JUMPDEST SWAP3 POP POP PUSH1 0x20 PUSH2 0xC96 DUP6 DUP3 DUP7 ADD PUSH2 0xA4E JUMP JUMPDEST SWAP2 POP POP SWAP3 POP SWAP3 SWAP1 POP JUMP JUMPDEST PUSH1 0x0 DUP1 REVERT JUMPDEST PUSH1 0x0 DUP1 REVERT JUMPDEST PUSH32 0x4E487B7100000000000000000000000000000000000000000000000000000000 PUSH1 0x0 MSTORE PUSH1 0x41 PUSH1 0x4 MSTORE PUSH1 0x24 PUSH1 0x0 REVERT JUMPDEST PUSH2 0xCE2 DUP3 PUSH2 0xB59 JUMP JUMPDEST DUP2 ADD DUP2 DUP2 LT PUSH8 0xFFFFFFFFFFFFFFFF DUP3 GT OR ISZERO PUSH2 0xD01 JUMPI PUSH2 0xD00 PUSH2 0xCAA JUMP JUMPDEST JUMPDEST DUP1 PUSH1 0x40 MSTORE POP POP POP JUMP JUMPDEST PUSH1 0x0 PUSH2 0xD14 PUSH2 0xA19 JUMP JUMPDEST SWAP1 POP PUSH2 0xD20 DUP3 DUP3 PUSH2 0xCD9 JUMP JUMPDEST SWAP2 SWAP1 POP JUMP JUMPDEST PUSH1 0x0 PUSH8 0xFFFFFFFFFFFFFFFF DUP3 GT ISZERO PUSH2 0xD40 JUMPI PUSH2 0xD3F PUSH2 0xCAA JUMP JUMPDEST JUMPDEST PUSH2 0xD49 DUP3 PUSH2 0xB59 JUMP JUMPDEST SWAP1 POP PUSH1 0x20 DUP2 ADD SWAP1 POP SWAP2 SWAP1 POP JUMP JUMPDEST DUP3 DUP2 DUP4 CALLDATACOPY PUSH1 0x0 DUP4 DUP4 ADD MSTORE POP POP POP JUMP JUMPDEST PUSH1 0x0 PUSH2 0xD78 PUSH2 0xD73 DUP5 PUSH2 0xD25 JUMP JUMPDEST PUSH2 0xD0A JUMP JUMPDEST SWAP1 POP DUP3 DUP2 MSTORE PUSH1 0x20 DUP2 ADD DUP5 DUP5 DUP5 ADD GT ISZERO PUSH2 0xD94 JUMPI PUSH2 0xD93 PUSH2 0xCA5 JUMP JUMPDEST JUMPDEST PUSH2 0xD9F DUP5 DUP3 DUP6 PUSH2 0xD56 JUMP JUMPDEST POP SWAP4 SWAP3 POP POP POP JUMP JUMPDEST PUSH1 0x0 DUP3 PUSH1 0x1F DUP4 ADD SLT PUSH2 0xDBC JUMPI PUSH2 0xDBB PUSH2 0xCA0 JUMP JUMPDEST JUMPDEST DUP2 CALLDATALOAD PUSH2 0xDCC DUP5 DUP3 PUSH1 0x20 DUP7 ADD PUSH2 0xD65 JUMP JUMPDEST SWAP2 POP POP SWAP3 SWAP2 POP POP JUMP JUMPDEST PUSH1 0x0 DUP1 PUSH1 0x0 PUSH1 0x60 DUP5 DUP7 SUB SLT ISZERO PUSH2 0xDEE JUMPI PUSH2 0xDED PUSH2 0xA23 JUMP JUMPDEST JUMPDEST PUSH1 0x0 DUP5 ADD CALLDATALOAD PUSH8 0xFFFFFFFFFFFFFFFF DUP2 GT ISZERO PUSH2 0xE0C JUMPI PUSH2 0xE0B PUSH2 0xA28 JUMP JUMPDEST JUMPDEST PUSH2 0xE18 DUP7 DUP3 DUP8 ADD PUSH2 0xDA7 JUMP JUMPDEST SWAP4 POP POP PUSH1 0x20 DUP5 ADD CALLDATALOAD PUSH8 0xFFFFFFFFFFFFFFFF DUP2 GT ISZERO PUSH2 0xE39 JUMPI PUSH2 0xE38 PUSH2 0xA28 JUMP JUMPDEST JUMPDEST PUSH2 0xE45 DUP7 DUP3 DUP8 ADD PUSH2 0xDA7 JUMP JUMPDEST SWAP3 POP POP PUSH1 0x40 PUSH2 0xE56 DUP7 DUP3 DUP8 ADD PUSH2 0xA4E JUMP JUMPDEST SWAP2 POP POP SWAP3 POP SWAP3 POP SWAP3 JUMP JUMPDEST PUSH32 0x4F6E6C7920736D61727420636F6E7472616374206F776E65722063616E207365 PUSH1 0x0 DUP3 ADD MSTORE PUSH32 0x74207072656D69756D2E00000000000000000000000000000000000000000000 PUSH1 0x20 DUP3 ADD MSTORE POP JUMP JUMPDEST PUSH1 0x0 PUSH2 0xEBC PUSH1 0x2A DUP4 PUSH2 0xB1E JUMP JUMPDEST SWAP2 POP PUSH2 0xEC7 DUP3 PUSH2 0xE60 JUMP JUMPDEST PUSH1 0x40 DUP3 ADD SWAP1 POP SWAP2 SWAP1 POP JUMP JUMPDEST PUSH1 0x0 PUSH1 0x20 DUP3 ADD SWAP1 POP DUP2 DUP2 SUB PUSH1 0x0 DUP4 ADD MSTORE PUSH2 0xEEB DUP2 PUSH2 0xEAF JUMP JUMPDEST SWAP1 POP SWAP2 SWAP1 POP JUMP JUMPDEST PUSH32 0x4E487B7100000000000000000000000000000000000000000000000000000000 PUSH1 0x0 MSTORE PUSH1 0x22 PUSH1 0x4 MSTORE PUSH1 0x24 PUSH1 0x0 REVERT JUMPDEST PUSH1 0x0 PUSH1 0x2 DUP3 DIV SWAP1 POP PUSH1 0x1 DUP3 AND DUP1 PUSH2 0xF39 JUMPI PUSH1 0x7F DUP3 AND SWAP2 POP JUMPDEST PUSH1 0x20 DUP3 LT DUP2 SUB PUSH2 0xF4C JUMPI PUSH2 0xF4B PUSH2 0xEF2 JUMP JUMPDEST JUMPDEST POP SWAP2 SWAP1 POP JUMP JUMPDEST PUSH32 0x4F6E6C7920736D61727420636F6E7472616374206F776E65722063616E207365 PUSH1 0x0 DUP3 ADD MSTORE PUSH32 0x74207061796F75742E0000000000000000000000000000000000000000000000 PUSH1 0x20 DUP3 ADD MSTORE POP JUMP JUMPDEST PUSH1 0x0 PUSH2 0xFAE PUSH1 0x29 DUP4 PUSH2 0xB1E JUMP JUMPDEST SWAP2 POP PUSH2 0xFB9 DUP3 PUSH2 0xF52 JUMP JUMPDEST PUSH1 0x40 DUP3 ADD SWAP1 POP SWAP2 SWAP1 POP JUMP JUMPDEST PUSH1 0x0 PUSH1 0x20 DUP3 ADD SWAP1 POP DUP2 DUP2 SUB PUSH1 0x0 DUP4 ADD MSTORE PUSH2 0xFDD DUP2 PUSH2 0xFA1 JUMP JUMPDEST SWAP1 POP SWAP2 SWAP1 POP JUMP JUMPDEST PUSH32 0x496E636F7272656374207072656D69756D20616D6F756E742E00000000000000 PUSH1 0x0 DUP3 ADD MSTORE POP JUMP JUMPDEST PUSH1 0x0 PUSH2 0x101A PUSH1 0x19 DUP4 PUSH2 0xB1E JUMP JUMPDEST SWAP2 POP PUSH2 0x1025 DUP3 PUSH2 0xFE4 JUMP JUMPDEST PUSH1 0x20 DUP3 ADD SWAP1 POP SWAP2 SWAP1 POP JUMP JUMPDEST PUSH1 0x0 PUSH1 0x20 DUP3 ADD SWAP1 POP DUP2 DUP2 SUB PUSH1 0x0 DUP4 ADD MSTORE PUSH2 0x1049 DUP2 PUSH2 0x100D JUMP JUMPDEST SWAP1 POP SWAP2 SWAP1 POP JUMP JUMPDEST PUSH32 0x596F757220636C61696D61626C6520616D6F756E7420697320746F6F206C6F77 PUSH1 0x0 DUP3 ADD MSTORE PUSH32 0x2E00000000000000000000000000000000000000000000000000000000000000 PUSH1 0x20 DUP3 ADD MSTORE POP JUMP JUMPDEST PUSH1 0x0 PUSH2 0x10AC PUSH1 0x21 DUP4 PUSH2 0xB1E JUMP JUMPDEST SWAP2 POP PUSH2 0x10B7 DUP3 PUSH2 0x1050 JUMP JUMPDEST PUSH1 0x40 DUP3 ADD SWAP1 POP SWAP2 SWAP1 POP JUMP JUMPDEST PUSH1 0x0 PUSH1 0x20 DUP3 ADD SWAP1 POP DUP2 DUP2 SUB PUSH1 0x0 DUP4 ADD MSTORE PUSH2 0x10DB DUP2 PUSH2 0x109F JUMP JUMPDEST SWAP1 POP SWAP2 SWAP1 POP JUMP JUMPDEST PUSH32 0x4E487B7100000000000000000000000000000000000000000000000000000000 PUSH1 0x0 MSTORE PUSH1 0x11 PUSH1 0x4 MSTORE PUSH1 0x24 PUSH1 0x0 REVERT JUMPDEST PUSH1 0x0 PUSH2 0x111C DUP3 PUSH2 0xA2D JUMP JUMPDEST SWAP2 POP PUSH2 0x1127 DUP4 PUSH2 0xA2D JUMP JUMPDEST SWAP3 POP DUP3 DUP3 SUB SWAP1 POP DUP2 DUP2 GT ISZERO PUSH2 0x113F JUMPI PUSH2 0x113E PUSH2 0x10E2 JUMP JUMPDEST JUMPDEST SWAP3 SWAP2 POP POP JUMP JUMPDEST PUSH1 0x0 DUP2 SWAP1 POP DUP2 PUSH1 0x0 MSTORE PUSH1 0x20 PUSH1 0x0 KECCAK256 SWAP1 POP SWAP2 SWAP1 POP JUMP JUMPDEST PUSH1 0x0 PUSH1 0x20 PUSH1 0x1F DUP4 ADD DIV SWAP1 POP SWAP2 SWAP1 POP JUMP JUMPDEST PUSH1 0x0 DUP3 DUP3 SHL SWAP1 POP SWAP3 SWAP2 POP POP JUMP JUMPDEST PUSH1 0x0 PUSH1 0x8 DUP4 MUL PUSH2 0x11A7 PUSH32 0xFFFFFFFFFFFFFFFFFFFFFFFFFFFFFFFFFFFFFFFFFFFFFFFFFFFFFFFFFFFFFFFF DUP3 PUSH2 0x116A JUMP JUMPDEST PUSH2 0x11B1 DUP7 DUP4 PUSH2 0x116A JUMP JUMPDEST SWAP6 POP DUP1 NOT DUP5 AND SWAP4 POP DUP1 DUP7 AND DUP5 OR SWAP3 POP POP POP SWAP4 SWAP3 POP POP POP JUMP JUMPDEST PUSH1 0x0 DUP2 SWAP1 POP SWAP2 SWAP1 POP JUMP JUMPDEST PUSH1 0x0 PUSH2 0x11EE PUSH2 0x11E9 PUSH2 0x11E4 DUP5 PUSH2 0xA2D JUMP JUMPDEST PUSH2 0x11C9 JUMP JUMPDEST PUSH2 0xA2D JUMP JUMPDEST SWAP1 POP SWAP2 SWAP1 POP JUMP JUMPDEST PUSH1 0x0 DUP2 SWAP1 POP SWAP2 SWAP1 POP JUMP JUMPDEST PUSH2 0x1208 DUP4 PUSH2 0x11D3 JUMP JUMPDEST PUSH2 0x121C PUSH2 0x1214 DUP3 PUSH2 0x11F5 JUMP JUMPDEST DUP5 DUP5 SLOAD PUSH2 0x1177 JUMP JUMPDEST DUP3 SSTORE POP POP POP POP JUMP JUMPDEST PUSH1 0x0 SWAP1 JUMP JUMPDEST PUSH2 0x1231 PUSH2 0x1224 JUMP JUMPDEST PUSH2 0x123C DUP2 DUP5 DUP5 PUSH2 0x11FF JUMP JUMPDEST POP POP POP JUMP JUMPDEST JUMPDEST DUP2 DUP2 LT ISZERO PUSH2 0x1260 JUMPI PUSH2 0x1255 PUSH1 0x0 DUP3 PUSH2 0x1229 JUMP JUMPDEST PUSH1 0x1 DUP2 ADD SWAP1 POP PUSH2 0x1242 JUMP JUMPDEST POP POP JUMP JUMPDEST PUSH1 0x1F DUP3 GT ISZERO PUSH2 0x12A5 JUMPI PUSH2 0x1276 DUP2 PUSH2 0x1145 JUMP JUMPDEST PUSH2 0x127F DUP5 PUSH2 0x115A JUMP JUMPDEST DUP2 ADD PUSH1 0x20 DUP6 LT ISZERO PUSH2 0x128E JUMPI DUP2 SWAP1 POP JUMPDEST PUSH2 0x12A2 PUSH2 0x129A DUP6 PUSH2 0x115A JUMP JUMPDEST DUP4 ADD DUP3 PUSH2 0x1241 JUMP JUMPDEST POP POP JUMPDEST POP POP POP JUMP JUMPDEST PUSH1 0x0 DUP3 DUP3 SHR SWAP1 POP SWAP3 SWAP2 POP POP JUMP JUMPDEST PUSH1 0x0 PUSH2 0x12C8 PUSH1 0x0 NOT DUP5 PUSH1 0x8 MUL PUSH2 0x12AA JUMP JUMPDEST NOT DUP1 DUP4 AND SWAP2 POP POP SWAP3 SWAP2 POP POP JUMP JUMPDEST PUSH1 0x0 PUSH2 0x12E1 DUP4 DUP4 PUSH2 0x12B7 JUMP JUMPDEST SWAP2 POP DUP3 PUSH1 0x2 MUL DUP3 OR SWAP1 POP SWAP3 SWAP2 POP POP JUMP JUMPDEST PUSH2 0x12FA DUP3 PUSH2 0xB13 JUMP JUMPDEST PUSH8 0xFFFFFFFFFFFFFFFF DUP2 GT ISZERO PUSH2 0x1313 JUMPI PUSH2 0x1312 PUSH2 0xCAA JUMP JUMPDEST JUMPDEST PUSH2 0x131D DUP3 SLOAD PUSH2 0xF21 JUMP JUMPDEST PUSH2 0x1328 DUP3 DUP3 DUP6 PUSH2 0x1264 JUMP JUMPDEST PUSH1 0x0 PUSH1 0x20 SWAP1 POP PUSH1 0x1F DUP4 GT PUSH1 0x1 DUP2 EQ PUSH2 0x135B JUMPI PUSH1 0x0 DUP5 ISZERO PUSH2 0x1349 JUMPI DUP3 DUP8 ADD MLOAD SWAP1 POP JUMPDEST PUSH2 0x1353 DUP6 DUP3 PUSH2 0x12D5 JUMP JUMPDEST DUP7 SSTORE POP PUSH2 0x13BB JUMP JUMPDEST PUSH1 0x1F NOT DUP5 AND PUSH2 0x1369 DUP7 PUSH2 0x1145 JUMP JUMPDEST PUSH1 0x0 JUMPDEST DUP3 DUP2 LT ISZERO PUSH2 0x1391 JUMPI DUP5 DUP10 ADD MLOAD DUP3 SSTORE PUSH1 0x1 DUP3 ADD SWAP2 POP PUSH1 0x20 DUP6 ADD SWAP5 POP PUSH1 0x20 DUP2 ADD SWAP1 POP PUSH2 0x136C JUMP JUMPDEST DUP7 DUP4 LT ISZERO PUSH2 0x13AE JUMPI DUP5 DUP10 ADD MLOAD PUSH2 0x13AA PUSH1 0x1F DUP10 AND DUP3 PUSH2 0x12B7 JUMP JUMPDEST DUP4 SSTORE POP JUMPDEST PUSH1 0x1 PUSH1 0x2 DUP9 MUL ADD DUP9 SSTORE POP POP POP JUMPDEST POP POP POP POP POP POP JUMP INVALID LOG2 PUSH5 0x6970667358 0x22 SLT KECCAK256 0x1F 0xCB 0xAD STATICCALL 0xDD 0xCA PUSH7 0xCEDB7EAA5BD6CB 0xE4 0xC1 CHAINID 0x26 0xB1 CALLDATASIZE DUP10 0x24 CALL PUSH18 0xC053B0A61985A4EA64736F6C634300081100 CALLER "
				},
				"gasEstimates": {
					"creation": {
						"codeDepositCost": "1022600",
						"executionCost": "infinite",
						"totalCost": "infinite"
					},
					"external": {
						"buyInsurance()": "26590",
						"checkDrought(uint256)": "27016",
						"claim(uint256,uint256)": "infinite",
						"creator()": "2538",
						"farmerToFutureObligation(address)": "2882",
						"farmerToObligation(address)": "2903",
						"index()": "2474",
						"indexThreshold()": "2517",
						"newFarmer()": "infinite",
						"oracle()": "2581",
						"payout()": "2518",
						"premium()": "2473",
						"register(string,string,uint256)": "infinite",
						"setPayout(uint256)": "24757",
						"setPremium(uint256)": "24736"
					}
				},
				"methodIdentifiers": {
					"buyInsurance()": "71618c79",
					"checkDrought(uint256)": "69e52fbb",
					"claim(uint256,uint256)": "c3490263",
					"creator()": "02d05d3f",
					"farmerToFutureObligation(address)": "169b6f09",
					"farmerToObligation(address)": "88a74cca",
					"index()": "2986c0e5",
					"indexThreshold()": "f96cfb84",
					"newFarmer()": "21b0c103",
					"oracle()": "7dc0d1d0",
					"payout()": "63bd1d4a",
					"premium()": "e0a73a93",
					"register(string,string,uint256)": "e8a60558",
					"setPayout(uint256)": "44c18aa7",
					"setPremium(uint256)": "10ec214f"
				}
			},
			"storageLayout": {
				"storage": [
					{
						"astId": 3,
						"contract": "index_insurance.sol:DroughtInsurance",
						"label": "premium",
						"offset": 0,
						"slot": "0",
						"type": "t_uint256"
					},
					{
						"astId": 5,
						"contract": "index_insurance.sol:DroughtInsurance",
						"label": "payout",
						"offset": 0,
						"slot": "1",
						"type": "t_uint256"
					},
					{
						"astId": 7,
						"contract": "index_insurance.sol:DroughtInsurance",
						"label": "indexThreshold",
						"offset": 0,
						"slot": "2",
						"type": "t_int256"
					},
					{
						"astId": 9,
						"contract": "index_insurance.sol:DroughtInsurance",
						"label": "index",
						"offset": 0,
						"slot": "3",
						"type": "t_int256"
					},
					{
						"astId": 11,
						"contract": "index_insurance.sol:DroughtInsurance",
						"label": "oracle",
						"offset": 0,
						"slot": "4",
						"type": "t_address"
					},
					{
						"astId": 13,
						"contract": "index_insurance.sol:DroughtInsurance",
						"label": "creator",
						"offset": 0,
						"slot": "5",
						"type": "t_address"
					},
					{
						"astId": 16,
						"contract": "index_insurance.sol:DroughtInsurance",
						"label": "newFarmer",
						"offset": 0,
						"slot": "6",
						"type": "t_struct(Farmer)25_storage"
					},
					{
						"astId": 29,
						"contract": "index_insurance.sol:DroughtInsurance",
						"label": "farmerToObligation",
						"offset": 0,
						"slot": "10",
						"type": "t_mapping(t_address,t_uint256)"
					},
					{
						"astId": 33,
						"contract": "index_insurance.sol:DroughtInsurance",
						"label": "farmerToFutureObligation",
						"offset": 0,
						"slot": "11",
						"type": "t_mapping(t_address,t_uint256)"
					}
				],
				"types": {
					"t_address": {
						"encoding": "inplace",
						"label": "address",
						"numberOfBytes": "20"
					},
					"t_int256": {
						"encoding": "inplace",
						"label": "int256",
						"numberOfBytes": "32"
					},
					"t_mapping(t_address,t_uint256)": {
						"encoding": "mapping",
						"key": "t_address",
						"label": "mapping(address => uint256)",
						"numberOfBytes": "32",
						"value": "t_uint256"
					},
					"t_string_storage": {
						"encoding": "bytes",
						"label": "string",
						"numberOfBytes": "32"
					},
					"t_struct(Farmer)25_storage": {
						"encoding": "inplace",
						"label": "struct DroughtInsurance.Farmer",
						"members": [
							{
								"astId": 18,
								"contract": "index_insurance.sol:DroughtInsurance",
								"label": "firstName",
								"offset": 0,
								"slot": "0",
								"type": "t_string_storage"
							},
							{
								"astId": 20,
								"contract": "index_insurance.sol:DroughtInsurance",
								"label": "lastName",
								"offset": 0,
								"slot": "1",
								"type": "t_string_storage"
							},
							{
								"astId": 22,
								"contract": "index_insurance.sol:DroughtInsurance",
								"label": "region",
								"offset": 0,
								"slot": "2",
								"type": "t_uint256"
							},
							{
								"astId": 24,
								"contract": "index_insurance.sol:DroughtInsurance",
								"label": "farmerAccount",
								"offset": 0,
								"slot": "3",
								"type": "t_address"
							}
						],
						"numberOfBytes": "128"
					},
					"t_uint256": {
						"encoding": "inplace",
						"label": "uint256",
						"numberOfBytes": "32"
					}
				}
			},
			"userdoc": {
				"kind": "user",
				"methods": {},
				"version": 1
			}
		}
	}
}